{
  "_format": "hh-sol-artifact-1",
  "contractName": "Image_NFT_MarketPlace",
  "sourceName": "contracts/ClickStore.sol",
  "abi": [
    {
      "inputs": [],
      "stateMutability": "nonpayable",
      "type": "constructor"
    },
    {
      "anonymous": false,
      "inputs": [
        {
          "indexed": true,
          "internalType": "address",
          "name": "owner",
          "type": "address"
        },
        {
          "indexed": true,
          "internalType": "address",
          "name": "approved",
          "type": "address"
        },
        {
          "indexed": true,
          "internalType": "uint256",
          "name": "tokenId",
          "type": "uint256"
        }
      ],
      "name": "Approval",
      "type": "event"
    },
    {
      "anonymous": false,
      "inputs": [
        {
          "indexed": true,
          "internalType": "address",
          "name": "owner",
          "type": "address"
        },
        {
          "indexed": true,
          "internalType": "address",
          "name": "operator",
          "type": "address"
        },
        {
          "indexed": false,
          "internalType": "bool",
          "name": "approved",
          "type": "bool"
        }
      ],
      "name": "ApprovalForAll",
      "type": "event"
    },
    {
      "anonymous": false,
      "inputs": [
        {
          "indexed": true,
          "internalType": "address",
          "name": "previousOwner",
          "type": "address"
        },
        {
          "indexed": true,
          "internalType": "address",
          "name": "newOwner",
          "type": "address"
        }
      ],
      "name": "OwnershipTransferred",
      "type": "event"
    },
    {
      "anonymous": false,
      "inputs": [
        {
          "indexed": true,
          "internalType": "address",
          "name": "from",
          "type": "address"
        },
        {
          "indexed": true,
          "internalType": "address",
          "name": "to",
          "type": "address"
        },
        {
          "indexed": true,
          "internalType": "uint256",
          "name": "tokenId",
          "type": "uint256"
        }
      ],
      "name": "Transfer",
      "type": "event"
    },
    {
      "inputs": [
        {
          "internalType": "address",
          "name": "to",
          "type": "address"
        },
        {
          "internalType": "uint256",
          "name": "tokenId",
          "type": "uint256"
        }
      ],
      "name": "approve",
      "outputs": [],
      "stateMutability": "nonpayable",
      "type": "function"
    },
    {
      "inputs": [
        {
          "internalType": "uint256",
          "name": "",
          "type": "uint256"
        }
      ],
      "name": "artists",
      "outputs": [
        {
          "internalType": "uint256",
          "name": "artistId",
          "type": "uint256"
        },
        {
          "internalType": "address payable",
          "name": "artistAddress",
          "type": "address"
        },
        {
          "internalType": "uint256",
          "name": "artist_fees",
          "type": "uint256"
        },
        {
          "internalType": "uint256",
          "name": "price",
          "type": "uint256"
        },
        {
          "internalType": "string",
          "name": "uri",
          "type": "string"
        },
        {
          "internalType": "bool",
          "name": "registered",
          "type": "bool"
        }
      ],
      "stateMutability": "view",
      "type": "function"
    },
    {
      "inputs": [
        {
          "internalType": "address",
          "name": "owner",
          "type": "address"
        }
      ],
      "name": "balanceOf",
      "outputs": [
        {
          "internalType": "uint256",
          "name": "",
          "type": "uint256"
        }
      ],
      "stateMutability": "view",
      "type": "function"
    },
    {
      "inputs": [
        {
          "internalType": "uint256",
          "name": "tokenId",
          "type": "uint256"
        }
      ],
      "name": "buyImage",
      "outputs": [],
      "stateMutability": "payable",
      "type": "function"
    },
    {
      "inputs": [
        {
          "internalType": "uint256",
          "name": "tokenId",
          "type": "uint256"
        }
      ],
      "name": "getApproved",
      "outputs": [
        {
          "internalType": "address",
          "name": "",
          "type": "address"
        }
      ],
      "stateMutability": "view",
      "type": "function"
    },
    {
      "inputs": [],
      "name": "getArtist",
      "outputs": [
        {
          "components": [
            {
              "internalType": "uint256",
              "name": "artistId",
              "type": "uint256"
            },
            {
              "internalType": "address payable",
              "name": "artistAddress",
              "type": "address"
            },
            {
              "internalType": "uint256",
              "name": "artist_fees",
              "type": "uint256"
            },
            {
              "internalType": "uint256",
              "name": "price",
              "type": "uint256"
            },
            {
              "internalType": "string",
              "name": "uri",
              "type": "string"
            },
            {
              "internalType": "bool",
              "name": "registered",
              "type": "bool"
            }
          ],
          "internalType": "struct Image_NFT_MarketPlace.Artist[]",
          "name": "",
          "type": "tuple[]"
        }
      ],
      "stateMutability": "view",
      "type": "function"
    },
    {
      "inputs": [],
      "name": "getImages",
      "outputs": [
        {
          "components": [
            {
              "internalType": "uint256",
              "name": "tokenId",
              "type": "uint256"
            },
            {
              "internalType": "address payable",
              "name": "seller",
              "type": "address"
            },
            {
              "internalType": "address",
              "name": "buyer",
              "type": "address"
            },
            {
              "internalType": "uint256",
              "name": "price",
              "type": "uint256"
            },
            {
              "internalType": "string",
              "name": "uri",
              "type": "string"
            },
            {
              "internalType": "bool",
              "name": "statusForBought",
              "type": "bool"
            },
            {
              "internalType": "bool",
              "name": "statusForResell",
              "type": "bool"
            },
            {
              "internalType": "uint256",
              "name": "numSales",
              "type": "uint256"
            }
          ],
          "internalType": "struct Image_NFT_MarketPlace.Image[]",
          "name": "",
          "type": "tuple[]"
        }
      ],
      "stateMutability": "view",
      "type": "function"
    },
    {
      "inputs": [],
      "name": "getReport",
      "outputs": [
        {
          "internalType": "uint256",
          "name": "",
          "type": "uint256"
        },
        {
          "internalType": "uint256",
          "name": "",
          "type": "uint256"
        },
        {
          "internalType": "uint256",
          "name": "",
          "type": "uint256"
        },
        {
          "internalType": "uint256",
          "name": "",
          "type": "uint256"
        },
        {
          "internalType": "uint256",
          "name": "",
          "type": "uint256"
        },
        {
          "internalType": "uint256",
          "name": "",
          "type": "uint256"
        },
        {
          "components": [
            {
              "internalType": "address",
              "name": "artistAddress",
              "type": "address"
            },
            {
              "internalType": "uint256",
              "name": "balance",
              "type": "uint256"
            }
          ],
          "internalType": "struct Image_NFT_MarketPlace.ArtistReport[]",
          "name": "",
          "type": "tuple[]"
        }
      ],
      "stateMutability": "nonpayable",
      "type": "function"
    },
    {
      "inputs": [
        {
          "internalType": "uint256",
          "name": "",
          "type": "uint256"
        }
      ],
      "name": "images",
      "outputs": [
        {
          "internalType": "uint256",
          "name": "tokenId",
          "type": "uint256"
        },
        {
          "internalType": "address payable",
          "name": "seller",
          "type": "address"
        },
        {
          "internalType": "address",
          "name": "buyer",
          "type": "address"
        },
        {
          "internalType": "uint256",
          "name": "price",
          "type": "uint256"
        },
        {
          "internalType": "string",
          "name": "uri",
          "type": "string"
        },
        {
          "internalType": "bool",
          "name": "statusForBought",
          "type": "bool"
        },
        {
          "internalType": "bool",
          "name": "statusForResell",
          "type": "bool"
        },
        {
          "internalType": "uint256",
          "name": "numSales",
          "type": "uint256"
        }
      ],
      "stateMutability": "view",
      "type": "function"
    },
    {
      "inputs": [
        {
          "internalType": "address",
          "name": "owner",
          "type": "address"
        },
        {
          "internalType": "address",
          "name": "operator",
          "type": "address"
        }
      ],
      "name": "isApprovedForAll",
      "outputs": [
        {
          "internalType": "bool",
          "name": "",
          "type": "bool"
        }
      ],
      "stateMutability": "view",
      "type": "function"
    },
    {
      "inputs": [],
      "name": "manager",
      "outputs": [
        {
          "internalType": "address payable",
          "name": "",
          "type": "address"
        }
      ],
      "stateMutability": "view",
      "type": "function"
    },
    {
      "inputs": [
        {
          "internalType": "uint256",
          "name": "index",
          "type": "uint256"
        }
      ],
      "name": "mintArt",
      "outputs": [],
      "stateMutability": "payable",
      "type": "function"
    },
    {
      "inputs": [],
      "name": "name",
      "outputs": [
        {
          "internalType": "string",
          "name": "",
          "type": "string"
        }
      ],
      "stateMutability": "view",
      "type": "function"
    },
    {
      "inputs": [],
      "name": "owner",
      "outputs": [
        {
          "internalType": "address",
          "name": "",
          "type": "address"
        }
      ],
      "stateMutability": "view",
      "type": "function"
    },
    {
      "inputs": [
        {
          "internalType": "uint256",
          "name": "tokenId",
          "type": "uint256"
        }
      ],
      "name": "ownerOf",
      "outputs": [
        {
          "internalType": "address",
          "name": "",
          "type": "address"
        }
      ],
      "stateMutability": "view",
      "type": "function"
    },
    {
      "inputs": [
        {
          "internalType": "uint256",
          "name": "_artist_fees",
          "type": "uint256"
        },
        {
          "internalType": "uint256",
          "name": "price",
          "type": "uint256"
        },
        {
          "internalType": "string",
          "name": "uri",
          "type": "string"
        }
      ],
      "name": "registerArt",
      "outputs": [],
      "stateMutability": "nonpayable",
      "type": "function"
    },
    {
      "inputs": [],
      "name": "renounceOwnership",
      "outputs": [],
      "stateMutability": "nonpayable",
      "type": "function"
    },
    {
      "inputs": [
        {
          "internalType": "uint256",
          "name": "tokenId",
          "type": "uint256"
        },
        {
          "internalType": "uint256",
          "name": "_price",
          "type": "uint256"
        }
      ],
      "name": "resellImage",
      "outputs": [],
      "stateMutability": "payable",
      "type": "function"
    },
    {
      "inputs": [
        {
          "internalType": "address",
          "name": "from",
          "type": "address"
        },
        {
          "internalType": "address",
          "name": "to",
          "type": "address"
        },
        {
          "internalType": "uint256",
          "name": "tokenId",
          "type": "uint256"
        }
      ],
      "name": "safeTransferFrom",
      "outputs": [],
      "stateMutability": "nonpayable",
      "type": "function"
    },
    {
      "inputs": [
        {
          "internalType": "address",
          "name": "from",
          "type": "address"
        },
        {
          "internalType": "address",
          "name": "to",
          "type": "address"
        },
        {
          "internalType": "uint256",
          "name": "tokenId",
          "type": "uint256"
        },
        {
          "internalType": "bytes",
          "name": "_data",
          "type": "bytes"
        }
      ],
      "name": "safeTransferFrom",
      "outputs": [],
      "stateMutability": "nonpayable",
      "type": "function"
    },
    {
      "inputs": [
        {
          "internalType": "address",
          "name": "operator",
          "type": "address"
        },
        {
          "internalType": "bool",
          "name": "approved",
          "type": "bool"
        }
      ],
      "name": "setApprovalForAll",
      "outputs": [],
      "stateMutability": "nonpayable",
      "type": "function"
    },
    {
      "inputs": [
        {
          "internalType": "bytes4",
          "name": "interfaceId",
          "type": "bytes4"
        }
      ],
      "name": "supportsInterface",
      "outputs": [
        {
          "internalType": "bool",
          "name": "",
          "type": "bool"
        }
      ],
      "stateMutability": "view",
      "type": "function"
    },
    {
      "inputs": [],
      "name": "symbol",
      "outputs": [
        {
          "internalType": "string",
          "name": "",
          "type": "string"
        }
      ],
      "stateMutability": "view",
      "type": "function"
    },
    {
      "inputs": [
        {
          "internalType": "uint256",
          "name": "tokenId",
          "type": "uint256"
        }
      ],
      "name": "tokenURI",
      "outputs": [
        {
          "internalType": "string",
          "name": "",
          "type": "string"
        }
      ],
      "stateMutability": "view",
      "type": "function"
    },
    {
      "inputs": [
        {
          "internalType": "address",
          "name": "from",
          "type": "address"
        },
        {
          "internalType": "address",
          "name": "to",
          "type": "address"
        },
        {
          "internalType": "uint256",
          "name": "tokenId",
          "type": "uint256"
        }
      ],
      "name": "transferFrom",
      "outputs": [],
      "stateMutability": "nonpayable",
      "type": "function"
    },
    {
      "inputs": [
        {
          "internalType": "address",
          "name": "newOwner",
          "type": "address"
        }
      ],
      "name": "transferOwnership",
      "outputs": [],
      "stateMutability": "nonpayable",
      "type": "function"
    }
  ],
  "bytecode": "0x60806040523480156200001157600080fd5b506040518060400160405280600681526020017f44417070466900000000000000000000000000000000000000000000000000008152506040518060400160405280600481526020017f4441505000000000000000000000000000000000000000000000000000000000815250816000908051906020019062000096929190620001e7565b508060019080519060200190620000af929190620001e7565b505050620000d2620000c66200011960201b60201c565b6200012160201b60201c565b33600960006101000a81548173ffffffffffffffffffffffffffffffffffffffff021916908373ffffffffffffffffffffffffffffffffffffffff160217905550620002fc565b600033905090565b6000600760009054906101000a900473ffffffffffffffffffffffffffffffffffffffff16905081600760006101000a81548173ffffffffffffffffffffffffffffffffffffffff021916908373ffffffffffffffffffffffffffffffffffffffff1602179055508173ffffffffffffffffffffffffffffffffffffffff168173ffffffffffffffffffffffffffffffffffffffff167f8be0079c531659141344cd1fd0a4f28419497f9722a3daafe3b4186f6b6457e060405160405180910390a35050565b828054620001f590620002c6565b90600052602060002090601f01602090048101928262000219576000855562000265565b82601f106200023457805160ff191683800117855562000265565b8280016001018555821562000265579182015b828111156200026457825182559160200191906001019062000247565b5b50905062000274919062000278565b5090565b5b808211156200029357600081600090555060010162000279565b5090565b7f4e487b7100000000000000000000000000000000000000000000000000000000600052602260045260246000fd5b60006002820490506001821680620002df57607f821691505b60208210811415620002f657620002f562000297565b5b50919050565b6154ba806200030c6000396000f3fe6080604052600436106101815760003560e01c8063715018a6116100d1578063b88d4fde1161008a578063e094826b11610064578063e094826b14610575578063e4085d67146105a0578063e985e9c5146105d1578063f2fde38b1461060e57610181565b8063b88d4fde146104cd578063c87b56dd146104f6578063cd7e10c11461053357610181565b8063715018a6146103ca57806384856482146103e15780638da5cb5b1461042557806390e3ccdf1461045057806395d89b4114610479578063a22cb465146104a457610181565b806323b872dd1161013e578063481c6a7511610118578063481c6a7514610309578063535f7668146103345780636352211e1461035057806370a082311461038d57610181565b806323b872dd1461029b5780632d2f8349146102c457806342842e0e146102e057610181565b806301ffc9a71461018657806303e6af2e146101c357806306fdde03146101df578063081812fc1461020a578063095ea7b3146102475780631149833414610270575b600080fd5b34801561019257600080fd5b506101ad60048036038101906101a89190613617565b610637565b6040516101ba919061365f565b60405180910390f35b6101dd60048036038101906101d891906136b0565b610719565b005b3480156101eb57600080fd5b506101f4610b77565b6040516102019190613776565b60405180910390f35b34801561021657600080fd5b50610231600480360381019061022c91906136b0565b610c09565b60405161023e91906137d9565b60405180910390f35b34801561025357600080fd5b5061026e60048036038101906102699190613820565b610c8e565b005b34801561027c57600080fd5b50610285610da6565b6040516102929190613a6a565b60405180910390f35b3480156102a757600080fd5b506102c260048036038101906102bd9190613a8c565b610f98565b005b6102de60048036038101906102d99190613adf565b610ff8565b005b3480156102ec57600080fd5b5061030760048036038101906103029190613a8c565b611288565b005b34801561031557600080fd5b5061031e6112a8565b60405161032b9190613b2e565b60405180910390f35b61034e600480360381019061034991906136b0565b6112ce565b005b34801561035c57600080fd5b50610377600480360381019061037291906136b0565b6117c3565b60405161038491906137d9565b60405180910390f35b34801561039957600080fd5b506103b460048036038101906103af9190613b49565b611875565b6040516103c19190613b85565b60405180910390f35b3480156103d657600080fd5b506103df61192d565b005b3480156103ed57600080fd5b50610408600480360381019061040391906136b0565b6119b5565b60405161041c989796959493929190613ba0565b60405180910390f35b34801561043157600080fd5b5061043a611aef565b60405161044791906137d9565b60405180910390f35b34801561045c57600080fd5b5061047760048036038101906104729190613d5a565b611b19565b005b34801561048557600080fd5b5061048e611c90565b60405161049b9190613776565b60405180910390f35b3480156104b057600080fd5b506104cb60048036038101906104c69190613df5565b611d22565b005b3480156104d957600080fd5b506104f460048036038101906104ef9190613ed6565b611d38565b005b34801561050257600080fd5b5061051d600480360381019061051891906136b0565b611d9a565b60405161052a9190613776565b60405180910390f35b34801561053f57600080fd5b5061055a600480360381019061055591906136b0565b611dac565b60405161056c96959493929190613f59565b60405180910390f35b34801561058157600080fd5b5061058a611ead565b604051610597919061410c565b60405180910390f35b3480156105ac57600080fd5b506105b561202d565b6040516105c8979695949392919061420c565b60405180910390f35b3480156105dd57600080fd5b506105f860048036038101906105f39190614282565b612415565b604051610605919061365f565b60405180910390f35b34801561061a57600080fd5b5061063560048036038101906106309190613b49565b6124a9565b005b60007f80ac58cd000000000000000000000000000000000000000000000000000000007bffffffffffffffffffffffffffffffffffffffffffffffffffffffff1916827bffffffffffffffffffffffffffffffffffffffffffffffffffffffff1916148061070257507f5b5e139f000000000000000000000000000000000000000000000000000000007bffffffffffffffffffffffffffffffffffffffffffffffffffffffff1916827bffffffffffffffffffffffffffffffffffffffffffffffffffffffff1916145b806107125750610711826125a1565b5b9050919050565b6000600a828154811061072f5761072e6142c2565b5b90600052602060002090600702016003015490506000600a8381548110610759576107586142c2565b5b906000526020600020906007020160010160009054906101000a900473ffffffffffffffffffffffffffffffffffffffff169050600073ffffffffffffffffffffffffffffffffffffffff168173ffffffffffffffffffffffffffffffffffffffff1614156107fd576040517f08c379a00000000000000000000000000000000000000000000000000000000081526004016107f49061433d565b60405180910390fd5b81341015610840576040517f08c379a0000000000000000000000000000000000000000000000000000000008152600401610837906143cf565b60405180910390fd5b600a8381548110610854576108536142c2565b5b906000526020600020906007020160050160009054906101000a900460ff16156108b3576040517f08c379a00000000000000000000000000000000000000000000000000000000081526004016108aa90614461565b60405180910390fd5b6000600a84815481106108c9576108c86142c2565b5b906000526020600020906007020160010160006101000a81548173ffffffffffffffffffffffffffffffffffffffff021916908373ffffffffffffffffffffffffffffffffffffffff16021790555033600a848154811061092d5761092c6142c2565b5b906000526020600020906007020160020160006101000a81548173ffffffffffffffffffffffffffffffffffffffff021916908373ffffffffffffffffffffffffffffffffffffffff1602179055506109cc60088481548110610993576109926142c2565b5b906000526020600020906006020160010160009054906101000a900473ffffffffffffffffffffffffffffffffffffffff16338561260b565b600883815481106109e0576109df6142c2565b5b906000526020600020906006020160010160009054906101000a900473ffffffffffffffffffffffffffffffffffffffff1673ffffffffffffffffffffffffffffffffffffffff166108fc60088581548110610a3f57610a3e6142c2565b5b9060005260206000209060060201600201549081150290604051600060405180830381858888f19350505050158015610a7c573d6000803e3d6000fd5b508073ffffffffffffffffffffffffffffffffffffffff166108fc349081150290604051600060405180830381858888f19350505050158015610ac3573d6000803e3d6000fd5b50600960009054906101000a900473ffffffffffffffffffffffffffffffffffffffff1673ffffffffffffffffffffffffffffffffffffffff168173ffffffffffffffffffffffffffffffffffffffff161415610b345734600c6000828254610b2c91906144b0565b925050819055505b6001600a8481548110610b4a57610b496142c2565b5b906000526020600020906007020160050160006101000a81548160ff021916908315150217905550505050565b606060008054610b8690614535565b80601f0160208091040260200160405190810160405280929190818152602001828054610bb290614535565b8015610bff5780601f10610bd457610100808354040283529160200191610bff565b820191906000526020600020905b815481529060010190602001808311610be257829003601f168201915b5050505050905090565b6000610c1482612872565b610c53576040517f08c379a0000000000000000000000000000000000000000000000000000000008152600401610c4a906145d9565b60405180910390fd5b6004600083815260200190815260200160002060009054906101000a900473ffffffffffffffffffffffffffffffffffffffff169050919050565b6000610c99826117c3565b90508073ffffffffffffffffffffffffffffffffffffffff168373ffffffffffffffffffffffffffffffffffffffff161415610d0a576040517f08c379a0000000000000000000000000000000000000000000000000000000008152600401610d019061466b565b60405180910390fd5b8073ffffffffffffffffffffffffffffffffffffffff16610d296128de565b73ffffffffffffffffffffffffffffffffffffffff161480610d585750610d5781610d526128de565b612415565b5b610d97576040517f08c379a0000000000000000000000000000000000000000000000000000000008152600401610d8e906146fd565b60405180910390fd5b610da183836128e6565b505050565b6060600a805480602002602001604051908101604052809291908181526020016000905b82821015610f8f578382906000526020600020906007020160405180610100016040529081600082015481526020016001820160009054906101000a900473ffffffffffffffffffffffffffffffffffffffff1673ffffffffffffffffffffffffffffffffffffffff1673ffffffffffffffffffffffffffffffffffffffff1681526020016002820160009054906101000a900473ffffffffffffffffffffffffffffffffffffffff1673ffffffffffffffffffffffffffffffffffffffff1673ffffffffffffffffffffffffffffffffffffffff16815260200160038201548152602001600482018054610ebe90614535565b80601f0160208091040260200160405190810160405280929190818152602001828054610eea90614535565b8015610f375780601f10610f0c57610100808354040283529160200191610f37565b820191906000526020600020905b815481529060010190602001808311610f1a57829003601f168201915b505050505081526020016005820160009054906101000a900460ff161515151581526020016005820160019054906101000a900460ff1615151515815260200160068201548152505081526020019060010190610dca565b50505050905090565b610fa9610fa36128de565b8261299f565b610fe8576040517f08c379a0000000000000000000000000000000000000000000000000000000008152600401610fdf9061478f565b60405180910390fd5b610ff383838361260b565b505050565b6008828154811061100c5761100b6142c2565b5b906000526020600020906006020160020154341015611060576040517f08c379a0000000000000000000000000000000000000000000000000000000008152600401611057906147fb565b60405180910390fd5b600081116110a3576040517f08c379a000000000000000000000000000000000000000000000000000000000815260040161109a90614867565b60405180910390fd5b600a82815481106110b7576110b66142c2565b5b906000526020600020906007020160050160009054906101000a900460ff16611115576040517f08c379a000000000000000000000000000000000000000000000000000000000815260040161110c906148f9565b60405180910390fd5b80600a838154811061112a576111296142c2565b5b90600052602060002090600702016003018190555033600a8381548110611154576111536142c2565b5b906000526020600020906007020160010160006101000a81548173ffffffffffffffffffffffffffffffffffffffff021916908373ffffffffffffffffffffffffffffffffffffffff1602179055506000600a83815481106111b9576111b86142c2565b5b906000526020600020906007020160020160006101000a81548173ffffffffffffffffffffffffffffffffffffffff021916908373ffffffffffffffffffffffffffffffffffffffff1602179055506000600a838154811061121e5761121d6142c2565b5b906000526020600020906007020160050160006101000a81548160ff0219169083151502179055506001600a838154811061125c5761125b6142c2565b5b906000526020600020906007020160050160016101000a81548160ff0219169083151502179055505050565b6112a383838360405180602001604052806000815250611d38565b505050565b600960009054906101000a900473ffffffffffffffffffffffffffffffffffffffff1681565b600960009054906101000a900473ffffffffffffffffffffffffffffffffffffffff1673ffffffffffffffffffffffffffffffffffffffff163373ffffffffffffffffffffffffffffffffffffffff161461135e576040517f08c379a00000000000000000000000000000000000000000000000000000000081526004016113559061498b565b60405180910390fd5b60088181548110611372576113716142c2565b5b9060005260206000209060060201600201543410156113c6576040517f08c379a00000000000000000000000000000000000000000000000000000000081526004016113bd90614a43565b60405180910390fd5b600a604051806101000160405280600b548152602001600960009054906101000a900473ffffffffffffffffffffffffffffffffffffffff1673ffffffffffffffffffffffffffffffffffffffff168152602001600073ffffffffffffffffffffffffffffffffffffffff1681526020016008848154811061144b5761144a6142c2565b5b906000526020600020906006020160030154815260200160088481548110611476576114756142c2565b5b9060005260206000209060060201600401805461149290614535565b80601f01602080910402602001604051908101604052809291908181526020018280546114be90614535565b801561150b5780601f106114e05761010080835404028352916020019161150b565b820191906000526020600020905b8154815290600101906020018083116114ee57829003601f168201915b50505050508152602001600015158152602001600015158152602001600081525090806001815401808255809150506001900390600052602060002090600702016000909190919091506000820151816000015560208201518160010160006101000a81548173ffffffffffffffffffffffffffffffffffffffff021916908373ffffffffffffffffffffffffffffffffffffffff16021790555060408201518160020160006101000a81548173ffffffffffffffffffffffffffffffffffffffff021916908373ffffffffffffffffffffffffffffffffffffffff160217905550606082015181600301556080820151816004019080519060200190611613929190613508565b5060a08201518160050160006101000a81548160ff02191690831515021790555060c08201518160050160016101000a81548160ff02191690831515021790555060e082015181600601555050600160088281548110611676576116756142c2565b5b906000526020600020906006020160050160006101000a81548160ff0219169083151502179055506116ef600882815481106116b5576116b46142c2565b5b906000526020600020906006020160010160009054906101000a900473ffffffffffffffffffffffffffffffffffffffff16600b54612a7d565b6117a8600b5460088381548110611709576117086142c2565b5b9060005260206000209060060201600401805461172590614535565b80601f016020809104026020016040519081016040528092919081815260200182805461175190614535565b801561179e5780601f106117735761010080835404028352916020019161179e565b820191906000526020600020905b81548152906001019060200180831161178157829003601f168201915b5050505050612a9b565b600b60008154809291906117bb90614a63565b919050555050565b6000806002600084815260200190815260200160002060009054906101000a900473ffffffffffffffffffffffffffffffffffffffff169050600073ffffffffffffffffffffffffffffffffffffffff168173ffffffffffffffffffffffffffffffffffffffff16141561186c576040517f08c379a000000000000000000000000000000000000000000000000000000000815260040161186390614b1e565b60405180910390fd5b80915050919050565b60008073ffffffffffffffffffffffffffffffffffffffff168273ffffffffffffffffffffffffffffffffffffffff1614156118e6576040517f08c379a00000000000000000000000000000000000000000000000000000000081526004016118dd90614bb0565b60405180910390fd5b600360008373ffffffffffffffffffffffffffffffffffffffff1673ffffffffffffffffffffffffffffffffffffffff168152602001908152602001600020549050919050565b6119356128de565b73ffffffffffffffffffffffffffffffffffffffff16611953611aef565b73ffffffffffffffffffffffffffffffffffffffff16146119a9576040517f08c379a00000000000000000000000000000000000000000000000000000000081526004016119a090614c1c565b60405180910390fd5b6119b36000612b0f565b565b600a81815481106119c557600080fd5b90600052602060002090600702016000915090508060000154908060010160009054906101000a900473ffffffffffffffffffffffffffffffffffffffff16908060020160009054906101000a900473ffffffffffffffffffffffffffffffffffffffff1690806003015490806004018054611a4090614535565b80601f0160208091040260200160405190810160405280929190818152602001828054611a6c90614535565b8015611ab95780601f10611a8e57610100808354040283529160200191611ab9565b820191906000526020600020905b815481529060010190602001808311611a9c57829003601f168201915b5050505050908060050160009054906101000a900460ff16908060050160019054906101000a900460ff16908060060154905088565b6000600760009054906101000a900473ffffffffffffffffffffffffffffffffffffffff16905090565b60008211611b5c576040517f08c379a0000000000000000000000000000000000000000000000000000000008152600401611b5390614c88565b60405180910390fd5b60086040518060c00160405280600d5481526020013373ffffffffffffffffffffffffffffffffffffffff1681526020018581526020018481526020018381526020016000151581525090806001815401808255809150506001900390600052602060002090600602016000909190919091506000820151816000015560208201518160010160006101000a81548173ffffffffffffffffffffffffffffffffffffffff021916908373ffffffffffffffffffffffffffffffffffffffff16021790555060408201518160020155606082015181600301556080820151816004019080519060200190611c50929190613508565b5060a08201518160050160006101000a81548160ff0219169083151502179055505050600d6000815480929190611c8690614a63565b9190505550505050565b606060018054611c9f90614535565b80601f0160208091040260200160405190810160405280929190818152602001828054611ccb90614535565b8015611d185780601f10611ced57610100808354040283529160200191611d18565b820191906000526020600020905b815481529060010190602001808311611cfb57829003601f168201915b5050505050905090565b611d34611d2d6128de565b8383612bd5565b5050565b611d49611d436128de565b8361299f565b611d88576040517f08c379a0000000000000000000000000000000000000000000000000000000008152600401611d7f9061478f565b60405180910390fd5b611d9484848484612d42565b50505050565b6060611da582612d9e565b9050919050565b60088181548110611dbc57600080fd5b90600052602060002090600602016000915090508060000154908060010160009054906101000a900473ffffffffffffffffffffffffffffffffffffffff1690806002015490806003015490806004018054611e1790614535565b80601f0160208091040260200160405190810160405280929190818152602001828054611e4390614535565b8015611e905780601f10611e6557610100808354040283529160200191611e90565b820191906000526020600020905b815481529060010190602001808311611e7357829003601f168201915b5050505050908060050160009054906101000a900460ff16905086565b60606008805480602002602001604051908101604052809291908181526020016000905b8282101561202457838290600052602060002090600602016040518060c0016040529081600082015481526020016001820160009054906101000a900473ffffffffffffffffffffffffffffffffffffffff1673ffffffffffffffffffffffffffffffffffffffff1673ffffffffffffffffffffffffffffffffffffffff1681526020016002820154815260200160038201548152602001600482018054611f7890614535565b80601f0160208091040260200160405190810160405280929190818152602001828054611fa490614535565b8015611ff15780601f10611fc657610100808354040283529160200191611ff1565b820191906000526020600020905b815481529060010190602001808311611fd457829003601f168201915b505050505081526020016005820160009054906101000a900460ff16151515158152505081526020019060010190611ed1565b50505050905090565b6000806000806000806060600960009054906101000a900473ffffffffffffffffffffffffffffffffffffffff1673ffffffffffffffffffffffffffffffffffffffff163373ffffffffffffffffffffffffffffffffffffffff16146120c8576040517f08c379a00000000000000000000000000000000000000000000000000000000081526004016120bf9061498b565b60405180910390fd5b600080600080600090505b600a805490508110156121cc5760011515600a82815481106120f8576120f76142c2565b5b906000526020600020906007020160050160019054906101000a900460ff161515141561212e57818061212a90614a63565b9250505b60011515600a8281548110612146576121456142c2565b5b906000526020600020906007020160050160009054906101000a900460ff161515141561217c57828061217890614a63565b9350505b6000600a8281548110612192576121916142c2565b5b90600052602060002090600702016006015414156121b95783806121b590614a63565b9450505b80806121c490614a63565b9150506120d3565b5060005b60088054905081101561232d57600e604051806040016040528060086000815481106121ff576121fe6142c2565b5b906000526020600020906006020160010160009054906101000a900473ffffffffffffffffffffffffffffffffffffffff1673ffffffffffffffffffffffffffffffffffffffff16815260200161229b6008600081548110612264576122636142c2565b5b906000526020600020906006020160010160009054906101000a900473ffffffffffffffffffffffffffffffffffffffff16611875565b815250908060018154018082558091505060019003906000526020600020906002020160009091909190915060008201518160000160006101000a81548173ffffffffffffffffffffffffffffffffffffffff021916908373ffffffffffffffffffffffffffffffffffffffff160217905550602082015181600101555050808061232590614a63565b9150506121d0565b50600880549050600a80549050848484600c54600e80805480602002602001604051908101604052809291908181526020016000905b828210156123f557838290600052602060002090600202016040518060400160405290816000820160009054906101000a900473ffffffffffffffffffffffffffffffffffffffff1673ffffffffffffffffffffffffffffffffffffffff1673ffffffffffffffffffffffffffffffffffffffff16815260200160018201548152505081526020019060010190612363565b505050509050995099509950995099509950995050505090919293949596565b6000600560008473ffffffffffffffffffffffffffffffffffffffff1673ffffffffffffffffffffffffffffffffffffffff16815260200190815260200160002060008373ffffffffffffffffffffffffffffffffffffffff1673ffffffffffffffffffffffffffffffffffffffff16815260200190815260200160002060009054906101000a900460ff16905092915050565b6124b16128de565b73ffffffffffffffffffffffffffffffffffffffff166124cf611aef565b73ffffffffffffffffffffffffffffffffffffffff1614612525576040517f08c379a000000000000000000000000000000000000000000000000000000000815260040161251c90614c1c565b60405180910390fd5b600073ffffffffffffffffffffffffffffffffffffffff168173ffffffffffffffffffffffffffffffffffffffff161415612595576040517f08c379a000000000000000000000000000000000000000000000000000000000815260040161258c90614d1a565b60405180910390fd5b61259e81612b0f565b50565b60007f01ffc9a7000000000000000000000000000000000000000000000000000000007bffffffffffffffffffffffffffffffffffffffffffffffffffffffff1916827bffffffffffffffffffffffffffffffffffffffffffffffffffffffff1916149050919050565b8273ffffffffffffffffffffffffffffffffffffffff1661262b826117c3565b73ffffffffffffffffffffffffffffffffffffffff1614612681576040517f08c379a000000000000000000000000000000000000000000000000000000000815260040161267890614dac565b60405180910390fd5b600073ffffffffffffffffffffffffffffffffffffffff168273ffffffffffffffffffffffffffffffffffffffff1614156126f1576040517f08c379a00000000000000000000000000000000000000000000000000000000081526004016126e890614e3e565b60405180910390fd5b6126fc838383612ef0565b6127076000826128e6565b6001600360008573ffffffffffffffffffffffffffffffffffffffff1673ffffffffffffffffffffffffffffffffffffffff16815260200190815260200160002060008282546127579190614e5e565b925050819055506001600360008473ffffffffffffffffffffffffffffffffffffffff1673ffffffffffffffffffffffffffffffffffffffff16815260200190815260200160002060008282546127ae91906144b0565b92505081905550816002600083815260200190815260200160002060006101000a81548173ffffffffffffffffffffffffffffffffffffffff021916908373ffffffffffffffffffffffffffffffffffffffff160217905550808273ffffffffffffffffffffffffffffffffffffffff168473ffffffffffffffffffffffffffffffffffffffff167fddf252ad1be2c89b69c2b068fc378daa952ba7f163c4a11628f55a4df523b3ef60405160405180910390a461286d838383612ef5565b505050565b60008073ffffffffffffffffffffffffffffffffffffffff166002600084815260200190815260200160002060009054906101000a900473ffffffffffffffffffffffffffffffffffffffff1673ffffffffffffffffffffffffffffffffffffffff1614159050919050565b600033905090565b816004600083815260200190815260200160002060006101000a81548173ffffffffffffffffffffffffffffffffffffffff021916908373ffffffffffffffffffffffffffffffffffffffff160217905550808273ffffffffffffffffffffffffffffffffffffffff16612959836117c3565b73ffffffffffffffffffffffffffffffffffffffff167f8c5be1e5ebec7d5bd14f71427d1e84f3dd0314c0f7b2291e5b200ac8c7c3b92560405160405180910390a45050565b60006129aa82612872565b6129e9576040517f08c379a00000000000000000000000000000000000000000000000000000000081526004016129e090614f04565b60405180910390fd5b60006129f4836117c3565b90508073ffffffffffffffffffffffffffffffffffffffff168473ffffffffffffffffffffffffffffffffffffffff161480612a6357508373ffffffffffffffffffffffffffffffffffffffff16612a4b84610c09565b73ffffffffffffffffffffffffffffffffffffffff16145b80612a745750612a738185612415565b5b91505092915050565b612a97828260405180602001604052806000815250612efa565b5050565b612aa482612872565b612ae3576040517f08c379a0000000000000000000000000000000000000000000000000000000008152600401612ada90614f96565b60405180910390fd5b80600660008481526020019081526020016000209080519060200190612b0a929190613508565b505050565b6000600760009054906101000a900473ffffffffffffffffffffffffffffffffffffffff16905081600760006101000a81548173ffffffffffffffffffffffffffffffffffffffff021916908373ffffffffffffffffffffffffffffffffffffffff1602179055508173ffffffffffffffffffffffffffffffffffffffff168173ffffffffffffffffffffffffffffffffffffffff167f8be0079c531659141344cd1fd0a4f28419497f9722a3daafe3b4186f6b6457e060405160405180910390a35050565b8173ffffffffffffffffffffffffffffffffffffffff168373ffffffffffffffffffffffffffffffffffffffff161415612c44576040517f08c379a0000000000000000000000000000000000000000000000000000000008152600401612c3b90615002565b60405180910390fd5b80600560008573ffffffffffffffffffffffffffffffffffffffff1673ffffffffffffffffffffffffffffffffffffffff16815260200190815260200160002060008473ffffffffffffffffffffffffffffffffffffffff1673ffffffffffffffffffffffffffffffffffffffff16815260200190815260200160002060006101000a81548160ff0219169083151502179055508173ffffffffffffffffffffffffffffffffffffffff168373ffffffffffffffffffffffffffffffffffffffff167f17307eab39ab6107e8899845ad3d59bd9653f200f220920489ca2b5937696c3183604051612d35919061365f565b60405180910390a3505050565b612d4d84848461260b565b612d5984848484612f55565b612d98576040517f08c379a0000000000000000000000000000000000000000000000000000000008152600401612d8f90615094565b60405180910390fd5b50505050565b6060612da982612872565b612de8576040517f08c379a0000000000000000000000000000000000000000000000000000000008152600401612ddf90615126565b60405180910390fd5b6000600660008481526020019081526020016000208054612e0890614535565b80601f0160208091040260200160405190810160405280929190818152602001828054612e3490614535565b8015612e815780601f10612e5657610100808354040283529160200191612e81565b820191906000526020600020905b815481529060010190602001808311612e6457829003601f168201915b505050505090506000612e926130ec565b9050600081511415612ea8578192505050612eeb565b600082511115612edd578082604051602001612ec5929190615182565b60405160208183030381529060405292505050612eeb565b612ee684613103565b925050505b919050565b505050565b505050565b612f0483836131aa565b612f116000848484612f55565b612f50576040517f08c379a0000000000000000000000000000000000000000000000000000000008152600401612f4790615094565b60405180910390fd5b505050565b6000612f768473ffffffffffffffffffffffffffffffffffffffff16613384565b156130df578373ffffffffffffffffffffffffffffffffffffffff1663150b7a02612f9f6128de565b8786866040518563ffffffff1660e01b8152600401612fc194939291906151fb565b602060405180830381600087803b158015612fdb57600080fd5b505af192505050801561300c57506040513d601f19601f82011682018060405250810190613009919061525c565b60015b61308f573d806000811461303c576040519150601f19603f3d011682016040523d82523d6000602084013e613041565b606091505b50600081511415613087576040517f08c379a000000000000000000000000000000000000000000000000000000000815260040161307e90615094565b60405180910390fd5b805181602001fd5b63150b7a0260e01b7bffffffffffffffffffffffffffffffffffffffffffffffffffffffff1916817bffffffffffffffffffffffffffffffffffffffffffffffffffffffff1916149150506130e4565b600190505b949350505050565b606060405180602001604052806000815250905090565b606061310e82612872565b61314d576040517f08c379a0000000000000000000000000000000000000000000000000000000008152600401613144906152fb565b60405180910390fd5b60006131576130ec565b9050600081511161317757604051806020016040528060008152506131a2565b80613181846133a7565b604051602001613192929190615182565b6040516020818303038152906040525b915050919050565b600073ffffffffffffffffffffffffffffffffffffffff168273ffffffffffffffffffffffffffffffffffffffff16141561321a576040517f08c379a000000000000000000000000000000000000000000000000000000000815260040161321190615367565b60405180910390fd5b61322381612872565b15613263576040517f08c379a000000000000000000000000000000000000000000000000000000000815260040161325a906153d3565b60405180910390fd5b61326f60008383612ef0565b6001600360008473ffffffffffffffffffffffffffffffffffffffff1673ffffffffffffffffffffffffffffffffffffffff16815260200190815260200160002060008282546132bf91906144b0565b92505081905550816002600083815260200190815260200160002060006101000a81548173ffffffffffffffffffffffffffffffffffffffff021916908373ffffffffffffffffffffffffffffffffffffffff160217905550808273ffffffffffffffffffffffffffffffffffffffff16600073ffffffffffffffffffffffffffffffffffffffff167fddf252ad1be2c89b69c2b068fc378daa952ba7f163c4a11628f55a4df523b3ef60405160405180910390a461338060008383612ef5565b5050565b6000808273ffffffffffffffffffffffffffffffffffffffff163b119050919050565b606060008214156133ef576040518060400160405280600181526020017f30000000000000000000000000000000000000000000000000000000000000008152509050613503565b600082905060005b6000821461342157808061340a90614a63565b915050600a8261341a9190615422565b91506133f7565b60008167ffffffffffffffff81111561343d5761343c613c2f565b5b6040519080825280601f01601f19166020018201604052801561346f5781602001600182028036833780820191505090505b5090505b600085146134fc576001826134889190614e5e565b9150600a856134979190615453565b60306134a391906144b0565b60f81b8183815181106134b9576134b86142c2565b5b60200101907effffffffffffffffffffffffffffffffffffffffffffffffffffffffffffff1916908160001a905350600a856134f59190615422565b9450613473565b8093505050505b919050565b82805461351490614535565b90600052602060002090601f016020900481019282613536576000855561357d565b82601f1061354f57805160ff191683800117855561357d565b8280016001018555821561357d579182015b8281111561357c578251825591602001919060010190613561565b5b50905061358a919061358e565b5090565b5b808211156135a757600081600090555060010161358f565b5090565b6000604051905090565b600080fd5b600080fd5b60007fffffffff0000000000000000000000000000000000000000000000000000000082169050919050565b6135f4816135bf565b81146135ff57600080fd5b50565b600081359050613611816135eb565b92915050565b60006020828403121561362d5761362c6135b5565b5b600061363b84828501613602565b91505092915050565b60008115159050919050565b61365981613644565b82525050565b60006020820190506136746000830184613650565b92915050565b6000819050919050565b61368d8161367a565b811461369857600080fd5b50565b6000813590506136aa81613684565b92915050565b6000602082840312156136c6576136c56135b5565b5b60006136d48482850161369b565b91505092915050565b600081519050919050565b600082825260208201905092915050565b60005b838110156137175780820151818401526020810190506136fc565b83811115613726576000848401525b50505050565b6000601f19601f8301169050919050565b6000613748826136dd565b61375281856136e8565b93506137628185602086016136f9565b61376b8161372c565b840191505092915050565b60006020820190508181036000830152613790818461373d565b905092915050565b600073ffffffffffffffffffffffffffffffffffffffff82169050919050565b60006137c382613798565b9050919050565b6137d3816137b8565b82525050565b60006020820190506137ee60008301846137ca565b92915050565b6137fd816137b8565b811461380857600080fd5b50565b60008135905061381a816137f4565b92915050565b60008060408385031215613837576138366135b5565b5b60006138458582860161380b565b92505060206138568582860161369b565b9150509250929050565b600081519050919050565b600082825260208201905092915050565b6000819050602082019050919050565b6138958161367a565b82525050565b60006138a682613798565b9050919050565b6138b68161389b565b82525050565b6138c5816137b8565b82525050565b600082825260208201905092915050565b60006138e7826136dd565b6138f181856138cb565b93506139018185602086016136f9565b61390a8161372c565b840191505092915050565b61391e81613644565b82525050565b60006101008301600083015161393d600086018261388c565b50602083015161395060208601826138ad565b50604083015161396360408601826138bc565b506060830151613976606086018261388c565b506080830151848203608086015261398e82826138dc565b91505060a08301516139a360a0860182613915565b5060c08301516139b660c0860182613915565b5060e08301516139c960e086018261388c565b508091505092915050565b60006139e08383613924565b905092915050565b6000602082019050919050565b6000613a0082613860565b613a0a818561386b565b935083602082028501613a1c8561387c565b8060005b85811015613a585784840389528151613a3985826139d4565b9450613a44836139e8565b925060208a01995050600181019050613a20565b50829750879550505050505092915050565b60006020820190508181036000830152613a8481846139f5565b905092915050565b600080600060608486031215613aa557613aa46135b5565b5b6000613ab38682870161380b565b9350506020613ac48682870161380b565b9250506040613ad58682870161369b565b9150509250925092565b60008060408385031215613af657613af56135b5565b5b6000613b048582860161369b565b9250506020613b158582860161369b565b9150509250929050565b613b288161389b565b82525050565b6000602082019050613b436000830184613b1f565b92915050565b600060208284031215613b5f57613b5e6135b5565b5b6000613b6d8482850161380b565b91505092915050565b613b7f8161367a565b82525050565b6000602082019050613b9a6000830184613b76565b92915050565b600061010082019050613bb6600083018b613b76565b613bc3602083018a613b1f565b613bd060408301896137ca565b613bdd6060830188613b76565b8181036080830152613bef818761373d565b9050613bfe60a0830186613650565b613c0b60c0830185613650565b613c1860e0830184613b76565b9998505050505050505050565b600080fd5b600080fd5b7f4e487b7100000000000000000000000000000000000000000000000000000000600052604160045260246000fd5b613c678261372c565b810181811067ffffffffffffffff82111715613c8657613c85613c2f565b5b80604052505050565b6000613c996135ab565b9050613ca58282613c5e565b919050565b600067ffffffffffffffff821115613cc557613cc4613c2f565b5b613cce8261372c565b9050602081019050919050565b82818337600083830152505050565b6000613cfd613cf884613caa565b613c8f565b905082815260208101848484011115613d1957613d18613c2a565b5b613d24848285613cdb565b509392505050565b600082601f830112613d4157613d40613c25565b5b8135613d51848260208601613cea565b91505092915050565b600080600060608486031215613d7357613d726135b5565b5b6000613d818682870161369b565b9350506020613d928682870161369b565b925050604084013567ffffffffffffffff811115613db357613db26135ba565b5b613dbf86828701613d2c565b9150509250925092565b613dd281613644565b8114613ddd57600080fd5b50565b600081359050613def81613dc9565b92915050565b60008060408385031215613e0c57613e0b6135b5565b5b6000613e1a8582860161380b565b9250506020613e2b85828601613de0565b9150509250929050565b600067ffffffffffffffff821115613e5057613e4f613c2f565b5b613e598261372c565b9050602081019050919050565b6000613e79613e7484613e35565b613c8f565b905082815260208101848484011115613e9557613e94613c2a565b5b613ea0848285613cdb565b509392505050565b600082601f830112613ebd57613ebc613c25565b5b8135613ecd848260208601613e66565b91505092915050565b60008060008060808587031215613ef057613eef6135b5565b5b6000613efe8782880161380b565b9450506020613f0f8782880161380b565b9350506040613f208782880161369b565b925050606085013567ffffffffffffffff811115613f4157613f406135ba565b5b613f4d87828801613ea8565b91505092959194509250565b600060c082019050613f6e6000830189613b76565b613f7b6020830188613b1f565b613f886040830187613b76565b613f956060830186613b76565b8181036080830152613fa7818561373d565b9050613fb660a0830184613650565b979650505050505050565b600081519050919050565b600082825260208201905092915050565b6000819050602082019050919050565b600060c083016000830151614005600086018261388c565b50602083015161401860208601826138ad565b50604083015161402b604086018261388c565b50606083015161403e606086018261388c565b506080830151848203608086015261405682826138dc565b91505060a083015161406b60a0860182613915565b508091505092915050565b60006140828383613fed565b905092915050565b6000602082019050919050565b60006140a282613fc1565b6140ac8185613fcc565b9350836020820285016140be85613fdd565b8060005b858110156140fa57848403895281516140db8582614076565b94506140e68361408a565b925060208a019950506001810190506140c2565b50829750879550505050505092915050565b600060208201905081810360008301526141268184614097565b905092915050565b600081519050919050565b600082825260208201905092915050565b6000819050602082019050919050565b60408201600082015161417060008501826138bc565b506020820151614183602085018261388c565b50505050565b6000614195838361415a565b60408301905092915050565b6000602082019050919050565b60006141b98261412e565b6141c38185614139565b93506141ce8361414a565b8060005b838110156141ff5781516141e68882614189565b97506141f1836141a1565b9250506001810190506141d2565b5085935050505092915050565b600060e082019050614221600083018a613b76565b61422e6020830189613b76565b61423b6040830188613b76565b6142486060830187613b76565b6142556080830186613b76565b61426260a0830185613b76565b81810360c083015261427481846141ae565b905098975050505050505050565b60008060408385031215614299576142986135b5565b5b60006142a78582860161380b565b92505060206142b88582860161380b565b9150509250929050565b7f4e487b7100000000000000000000000000000000000000000000000000000000600052603260045260246000fd5b7f4e4654206e6f7420666f722073616c6500000000000000000000000000000000600082015250565b60006143276010836136e8565b9150614332826142f1565b602082019050919050565b600060208201905081810360008301526143568161431a565b9050919050565b7f506c656173652073656e64207468652061736b696e6720707269636520696e2060008201527f6f7264657220746f20636f6d706c657465207468652070757263686173650000602082015250565b60006143b9603e836136e8565b91506143c48261435d565b604082019050919050565b600060208201905081810360008301526143e8816143ac565b9050919050565b7f496d61676520697320616c726561647920736f6c6420616e64206e6f7420726560008201527f6c69737465640000000000000000000000000000000000000000000000000000602082015250565b600061444b6026836136e8565b9150614456826143ef565b604082019050919050565b6000602082019050818103600083015261447a8161443e565b9050919050565b7f4e487b7100000000000000000000000000000000000000000000000000000000600052601160045260246000fd5b60006144bb8261367a565b91506144c68361367a565b9250827fffffffffffffffffffffffffffffffffffffffffffffffffffffffffffffffff038211156144fb576144fa614481565b5b828201905092915050565b7f4e487b7100000000000000000000000000000000000000000000000000000000600052602260045260246000fd5b6000600282049050600182168061454d57607f821691505b6020821081141561456157614560614506565b5b50919050565b7f4552433732313a20617070726f76656420717565727920666f72206e6f6e657860008201527f697374656e7420746f6b656e0000000000000000000000000000000000000000602082015250565b60006145c3602c836136e8565b91506145ce82614567565b604082019050919050565b600060208201905081810360008301526145f2816145b6565b9050919050565b7f4552433732313a20617070726f76616c20746f2063757272656e74206f776e6560008201527f7200000000000000000000000000000000000000000000000000000000000000602082015250565b60006146556021836136e8565b9150614660826145f9565b604082019050919050565b6000602082019050818103600083015261468481614648565b9050919050565b7f4552433732313a20617070726f76652063616c6c6572206973206e6f74206f7760008201527f6e6572206e6f7220617070726f76656420666f7220616c6c0000000000000000602082015250565b60006146e76038836136e8565b91506146f28261468b565b604082019050919050565b60006020820190508181036000830152614716816146da565b9050919050565b7f4552433732313a207472616e736665722063616c6c6572206973206e6f74206f60008201527f776e6572206e6f7220617070726f766564000000000000000000000000000000602082015250565b60006147796031836136e8565b91506147848261471d565b604082019050919050565b600060208201905081810360008301526147a88161476c565b9050919050565b7f4d7573742070617920726f79616c747900000000000000000000000000000000600082015250565b60006147e56010836136e8565b91506147f0826147af565b602082019050919050565b60006020820190508181036000830152614814816147d8565b9050919050565b7f5072696365206d7573742062652067726561746572207468616e207a65726f00600082015250565b6000614851601f836136e8565b915061485c8261481b565b602082019050919050565b6000602082019050818103600083015261488081614844565b9050919050565b7f496d6167652073686f756c6420626520626f7567687420666972737420746f2060008201527f726573656c6c0000000000000000000000000000000000000000000000000000602082015250565b60006148e36026836136e8565b91506148ee82614887565b604082019050919050565b60006020820190508181036000830152614912816148d6565b9050919050565b7f4f6e6c79207468652063616d706169676e206d616e616765722063616e20636160008201527f6c6c20746869732066756e6374696f6e2e000000000000000000000000000000602082015250565b60006149756031836136e8565b915061498082614919565b604082019050919050565b600060208201905081810360008301526149a481614968565b9050919050565b7f4d616e61676572206d75737420706179206172746973742066656520666f722060008201527f6561636820746f6b656e206c6973746564206f6e20746865206d61726b65747060208201527f6c61636500000000000000000000000000000000000000000000000000000000604082015250565b6000614a2d6044836136e8565b9150614a38826149ab565b606082019050919050565b60006020820190508181036000830152614a5c81614a20565b9050919050565b6000614a6e8261367a565b91507fffffffffffffffffffffffffffffffffffffffffffffffffffffffffffffffff821415614aa157614aa0614481565b5b600182019050919050565b7f4552433732313a206f776e657220717565727920666f72206e6f6e657869737460008201527f656e7420746f6b656e0000000000000000000000000000000000000000000000602082015250565b6000614b086029836136e8565b9150614b1382614aac565b604082019050919050565b60006020820190508181036000830152614b3781614afb565b9050919050565b7f4552433732313a2062616c616e636520717565727920666f7220746865207a6560008201527f726f206164647265737300000000000000000000000000000000000000000000602082015250565b6000614b9a602a836136e8565b9150614ba582614b3e565b604082019050919050565b60006020820190508181036000830152614bc981614b8d565b9050919050565b7f4f776e61626c653a2063616c6c6572206973206e6f7420746865206f776e6572600082015250565b6000614c066020836136e8565b9150614c1182614bd0565b602082019050919050565b60006020820190508181036000830152614c3581614bf9565b9050919050565b7f5072696365206d7573742062652067726561746572207468616e203000000000600082015250565b6000614c72601c836136e8565b9150614c7d82614c3c565b602082019050919050565b60006020820190508181036000830152614ca181614c65565b9050919050565b7f4f776e61626c653a206e6577206f776e657220697320746865207a65726f206160008201527f6464726573730000000000000000000000000000000000000000000000000000602082015250565b6000614d046026836136e8565b9150614d0f82614ca8565b604082019050919050565b60006020820190508181036000830152614d3381614cf7565b9050919050565b7f4552433732313a207472616e736665722066726f6d20696e636f72726563742060008201527f6f776e6572000000000000000000000000000000000000000000000000000000602082015250565b6000614d966025836136e8565b9150614da182614d3a565b604082019050919050565b60006020820190508181036000830152614dc581614d89565b9050919050565b7f4552433732313a207472616e7366657220746f20746865207a65726f2061646460008201527f7265737300000000000000000000000000000000000000000000000000000000602082015250565b6000614e286024836136e8565b9150614e3382614dcc565b604082019050919050565b60006020820190508181036000830152614e5781614e1b565b9050919050565b6000614e698261367a565b9150614e748361367a565b925082821015614e8757614e86614481565b5b828203905092915050565b7f4552433732313a206f70657261746f7220717565727920666f72206e6f6e657860008201527f697374656e7420746f6b656e0000000000000000000000000000000000000000602082015250565b6000614eee602c836136e8565b9150614ef982614e92565b604082019050919050565b60006020820190508181036000830152614f1d81614ee1565b9050919050565b7f45524337323155524953746f726167653a2055524920736574206f66206e6f6e60008201527f6578697374656e7420746f6b656e000000000000000000000000000000000000602082015250565b6000614f80602e836136e8565b9150614f8b82614f24565b604082019050919050565b60006020820190508181036000830152614faf81614f73565b9050919050565b7f4552433732313a20617070726f766520746f2063616c6c657200000000000000600082015250565b6000614fec6019836136e8565b9150614ff782614fb6565b602082019050919050565b6000602082019050818103600083015261501b81614fdf565b9050919050565b7f4552433732313a207472616e7366657220746f206e6f6e20455243373231526560008201527f63656976657220696d706c656d656e7465720000000000000000000000000000602082015250565b600061507e6032836136e8565b915061508982615022565b604082019050919050565b600060208201905081810360008301526150ad81615071565b9050919050565b7f45524337323155524953746f726167653a2055524920717565727920666f722060008201527f6e6f6e6578697374656e7420746f6b656e000000000000000000000000000000602082015250565b60006151106031836136e8565b915061511b826150b4565b604082019050919050565b6000602082019050818103600083015261513f81615103565b9050919050565b600081905092915050565b600061515c826136dd565b6151668185615146565b93506151768185602086016136f9565b80840191505092915050565b600061518e8285615151565b915061519a8284615151565b91508190509392505050565b600081519050919050565b600082825260208201905092915050565b60006151cd826151a6565b6151d781856151b1565b93506151e78185602086016136f9565b6151f08161372c565b840191505092915050565b600060808201905061521060008301876137ca565b61521d60208301866137ca565b61522a6040830185613b76565b818103606083015261523c81846151c2565b905095945050505050565b600081519050615256816135eb565b92915050565b600060208284031215615272576152716135b5565b5b600061528084828501615247565b91505092915050565b7f4552433732314d657461646174613a2055524920717565727920666f72206e6f60008201527f6e6578697374656e7420746f6b656e0000000000000000000000000000000000602082015250565b60006152e5602f836136e8565b91506152f082615289565b604082019050919050565b60006020820190508181036000830152615314816152d8565b9050919050565b7f4552433732313a206d696e7420746f20746865207a65726f2061646472657373600082015250565b60006153516020836136e8565b915061535c8261531b565b602082019050919050565b6000602082019050818103600083015261538081615344565b9050919050565b7f4552433732313a20746f6b656e20616c7265616479206d696e74656400000000600082015250565b60006153bd601c836136e8565b91506153c882615387565b602082019050919050565b600060208201905081810360008301526153ec816153b0565b9050919050565b7f4e487b7100000000000000000000000000000000000000000000000000000000600052601260045260246000fd5b600061542d8261367a565b91506154388361367a565b925082615448576154476153f3565b5b828204905092915050565b600061545e8261367a565b91506154698361367a565b925082615479576154786153f3565b5b82820690509291505056fea2646970667358221220b5835449ec437f4ee8cb97e2fc02ebd3989e5d428123474abb55cf317ffca98464736f6c63430008090033",
  "linkReferences": {},
  "deployedLinkReferences": {}
}