{
  "_format": "hh-sol-artifact-1",
  "contractName": "Image_NFT_MarketPlace",
  "sourceName": "contracts/ClickStore.sol",
  "abi": [
    {
      "inputs": [
        {
          "internalType": "uint256",
          "name": "_artist_fees",
          "type": "uint256"
        },
        {
          "internalType": "address",
          "name": "_art_maker",
          "type": "address"
        },
        {
          "internalType": "uint256[]",
          "name": "_prices",
          "type": "uint256[]"
        }
      ],
      "stateMutability": "payable",
      "type": "constructor"
    },
    {
      "anonymous": false,
      "inputs": [
        {
          "indexed": true,
          "internalType": "address",
          "name": "owner",
          "type": "address"
        },
        {
          "indexed": true,
          "internalType": "address",
          "name": "approved",
          "type": "address"
        },
        {
          "indexed": true,
          "internalType": "uint256",
          "name": "tokenId",
          "type": "uint256"
        }
      ],
      "name": "Approval",
      "type": "event"
    },
    {
      "anonymous": false,
      "inputs": [
        {
          "indexed": true,
          "internalType": "address",
          "name": "owner",
          "type": "address"
        },
        {
          "indexed": true,
          "internalType": "address",
          "name": "operator",
          "type": "address"
        },
        {
          "indexed": false,
          "internalType": "bool",
          "name": "approved",
          "type": "bool"
        }
      ],
      "name": "ApprovalForAll",
      "type": "event"
    },
    {
      "anonymous": false,
      "inputs": [
        {
          "indexed": true,
          "internalType": "uint256",
          "name": "tokenId",
          "type": "uint256"
        },
        {
          "indexed": true,
          "internalType": "address",
          "name": "seller",
          "type": "address"
        },
        {
          "indexed": false,
          "internalType": "address",
          "name": "buyer",
          "type": "address"
        },
        {
          "indexed": false,
          "internalType": "uint256",
          "name": "price",
          "type": "uint256"
        }
      ],
      "name": "ImageBought",
      "type": "event"
    },
    {
      "anonymous": false,
      "inputs": [
        {
          "indexed": true,
          "internalType": "uint256",
          "name": "tokenId",
          "type": "uint256"
        },
        {
          "indexed": true,
          "internalType": "address",
          "name": "seller",
          "type": "address"
        },
        {
          "indexed": false,
          "internalType": "uint256",
          "name": "price",
          "type": "uint256"
        }
      ],
      "name": "ImageRelisted",
      "type": "event"
    },
    {
      "anonymous": false,
      "inputs": [
        {
          "indexed": true,
          "internalType": "address",
          "name": "previousOwner",
          "type": "address"
        },
        {
          "indexed": true,
          "internalType": "address",
          "name": "newOwner",
          "type": "address"
        }
      ],
      "name": "OwnershipTransferred",
      "type": "event"
    },
    {
      "anonymous": false,
      "inputs": [
        {
          "indexed": true,
          "internalType": "address",
          "name": "from",
          "type": "address"
        },
        {
          "indexed": true,
          "internalType": "address",
          "name": "to",
          "type": "address"
        },
        {
          "indexed": true,
          "internalType": "uint256",
          "name": "tokenId",
          "type": "uint256"
        }
      ],
      "name": "Transfer",
      "type": "event"
    },
    {
      "inputs": [],
      "name": "NTF_Storage_Link",
      "outputs": [
        {
          "internalType": "string",
          "name": "",
          "type": "string"
        }
      ],
      "stateMutability": "view",
      "type": "function"
    },
    {
      "inputs": [
        {
          "internalType": "address",
          "name": "to",
          "type": "address"
        },
        {
          "internalType": "uint256",
          "name": "tokenId",
          "type": "uint256"
        }
      ],
      "name": "approve",
      "outputs": [],
      "stateMutability": "nonpayable",
      "type": "function"
    },
    {
      "inputs": [],
      "name": "art_maker",
      "outputs": [
        {
          "internalType": "address",
          "name": "",
          "type": "address"
        }
      ],
      "stateMutability": "view",
      "type": "function"
    },
    {
      "inputs": [],
      "name": "artist_fees",
      "outputs": [
        {
          "internalType": "uint256",
          "name": "",
          "type": "uint256"
        }
      ],
      "stateMutability": "view",
      "type": "function"
    },
    {
      "inputs": [
        {
          "internalType": "address",
          "name": "owner",
          "type": "address"
        }
      ],
      "name": "balanceOf",
      "outputs": [
        {
          "internalType": "uint256",
          "name": "",
          "type": "uint256"
        }
      ],
      "stateMutability": "view",
      "type": "function"
    },
    {
      "inputs": [
        {
          "internalType": "uint256",
          "name": "_tokenId",
          "type": "uint256"
        }
      ],
      "name": "buyImage",
      "outputs": [],
      "stateMutability": "payable",
      "type": "function"
    },
    {
      "inputs": [],
      "name": "followed_Extension",
      "outputs": [
        {
          "internalType": "string",
          "name": "",
          "type": "string"
        }
      ],
      "stateMutability": "view",
      "type": "function"
    },
    {
      "inputs": [],
      "name": "getAllUnsoldImages",
      "outputs": [
        {
          "components": [
            {
              "internalType": "uint256",
              "name": "tokenId",
              "type": "uint256"
            },
            {
              "internalType": "address payable",
              "name": "seller",
              "type": "address"
            },
            {
              "internalType": "uint256",
              "name": "price",
              "type": "uint256"
            }
          ],
          "internalType": "struct Image_NFT_MarketPlace.Image[]",
          "name": "",
          "type": "tuple[]"
        }
      ],
      "stateMutability": "view",
      "type": "function"
    },
    {
      "inputs": [
        {
          "internalType": "uint256",
          "name": "tokenId",
          "type": "uint256"
        }
      ],
      "name": "getApproved",
      "outputs": [
        {
          "internalType": "address",
          "name": "",
          "type": "address"
        }
      ],
      "stateMutability": "view",
      "type": "function"
    },
    {
      "inputs": [],
      "name": "getMyImages",
      "outputs": [
        {
          "components": [
            {
              "internalType": "uint256",
              "name": "tokenId",
              "type": "uint256"
            },
            {
              "internalType": "address payable",
              "name": "seller",
              "type": "address"
            },
            {
              "internalType": "uint256",
              "name": "price",
              "type": "uint256"
            }
          ],
          "internalType": "struct Image_NFT_MarketPlace.Image[]",
          "name": "",
          "type": "tuple[]"
        }
      ],
      "stateMutability": "view",
      "type": "function"
    },
    {
      "inputs": [
        {
          "internalType": "uint256",
          "name": "",
          "type": "uint256"
        }
      ],
      "name": "images",
      "outputs": [
        {
          "internalType": "uint256",
          "name": "tokenId",
          "type": "uint256"
        },
        {
          "internalType": "address payable",
          "name": "seller",
          "type": "address"
        },
        {
          "internalType": "uint256",
          "name": "price",
          "type": "uint256"
        }
      ],
      "stateMutability": "view",
      "type": "function"
    },
    {
      "inputs": [
        {
          "internalType": "address",
          "name": "owner",
          "type": "address"
        },
        {
          "internalType": "address",
          "name": "operator",
          "type": "address"
        }
      ],
      "name": "isApprovedForAll",
      "outputs": [
        {
          "internalType": "bool",
          "name": "",
          "type": "bool"
        }
      ],
      "stateMutability": "view",
      "type": "function"
    },
    {
      "inputs": [],
      "name": "name",
      "outputs": [
        {
          "internalType": "string",
          "name": "",
          "type": "string"
        }
      ],
      "stateMutability": "view",
      "type": "function"
    },
    {
      "inputs": [],
      "name": "owner",
      "outputs": [
        {
          "internalType": "address",
          "name": "",
          "type": "address"
        }
      ],
      "stateMutability": "view",
      "type": "function"
    },
    {
      "inputs": [
        {
          "internalType": "uint256",
          "name": "tokenId",
          "type": "uint256"
        }
      ],
      "name": "ownerOf",
      "outputs": [
        {
          "internalType": "address",
          "name": "",
          "type": "address"
        }
      ],
      "stateMutability": "view",
      "type": "function"
    },
    {
      "inputs": [],
      "name": "renounceOwnership",
      "outputs": [],
      "stateMutability": "nonpayable",
      "type": "function"
    },
    {
      "inputs": [
        {
          "internalType": "uint256",
          "name": "_tokenId",
          "type": "uint256"
        },
        {
          "internalType": "uint256",
          "name": "_price",
          "type": "uint256"
        }
      ],
      "name": "resellImage",
      "outputs": [],
      "stateMutability": "payable",
      "type": "function"
    },
    {
      "inputs": [
        {
          "internalType": "address",
          "name": "from",
          "type": "address"
        },
        {
          "internalType": "address",
          "name": "to",
          "type": "address"
        },
        {
          "internalType": "uint256",
          "name": "tokenId",
          "type": "uint256"
        }
      ],
      "name": "safeTransferFrom",
      "outputs": [],
      "stateMutability": "nonpayable",
      "type": "function"
    },
    {
      "inputs": [
        {
          "internalType": "address",
          "name": "from",
          "type": "address"
        },
        {
          "internalType": "address",
          "name": "to",
          "type": "address"
        },
        {
          "internalType": "uint256",
          "name": "tokenId",
          "type": "uint256"
        },
        {
          "internalType": "bytes",
          "name": "_data",
          "type": "bytes"
        }
      ],
      "name": "safeTransferFrom",
      "outputs": [],
      "stateMutability": "nonpayable",
      "type": "function"
    },
    {
      "inputs": [
        {
          "internalType": "address",
          "name": "operator",
          "type": "address"
        },
        {
          "internalType": "bool",
          "name": "approved",
          "type": "bool"
        }
      ],
      "name": "setApprovalForAll",
      "outputs": [],
      "stateMutability": "nonpayable",
      "type": "function"
    },
    {
      "inputs": [
        {
          "internalType": "bytes4",
          "name": "interfaceId",
          "type": "bytes4"
        }
      ],
      "name": "supportsInterface",
      "outputs": [
        {
          "internalType": "bool",
          "name": "",
          "type": "bool"
        }
      ],
      "stateMutability": "view",
      "type": "function"
    },
    {
      "inputs": [],
      "name": "symbol",
      "outputs": [
        {
          "internalType": "string",
          "name": "",
          "type": "string"
        }
      ],
      "stateMutability": "view",
      "type": "function"
    },
    {
      "inputs": [
        {
          "internalType": "uint256",
          "name": "tokenId",
          "type": "uint256"
        }
      ],
      "name": "tokenURI",
      "outputs": [
        {
          "internalType": "string",
          "name": "",
          "type": "string"
        }
      ],
      "stateMutability": "view",
      "type": "function"
    },
    {
      "inputs": [
        {
          "internalType": "address",
          "name": "from",
          "type": "address"
        },
        {
          "internalType": "address",
          "name": "to",
          "type": "address"
        },
        {
          "internalType": "uint256",
          "name": "tokenId",
          "type": "uint256"
        }
      ],
      "name": "transferFrom",
      "outputs": [],
      "stateMutability": "nonpayable",
      "type": "function"
    },
    {
      "inputs": [
        {
          "internalType": "address",
          "name": "newOwner",
          "type": "address"
        }
      ],
      "name": "transferOwnership",
      "outputs": [],
      "stateMutability": "nonpayable",
      "type": "function"
    },
    {
      "inputs": [
        {
          "internalType": "uint256",
          "name": "_artist_fees",
          "type": "uint256"
        }
      ],
      "name": "updateartist_fees",
      "outputs": [],
      "stateMutability": "nonpayable",
      "type": "function"
    }
  ],
  "bytecode": "0x60806040526040518060800160405280605981526020016200459f605991396007908051906020019062000035929190620006ca565b506040518060400160405280600581526020017f2e6a736f6e0000000000000000000000000000000000000000000000000000008152506008908051906020019062000083929190620006ca565b50604051620045f8380380620045f88339818101604052810190620000a99190620009a3565b6040518060400160405280600681526020017f44417070466900000000000000000000000000000000000000000000000000008152506040518060400160405280600481526020017f444150500000000000000000000000000000000000000000000000000000000081525081600090805190602001906200012d929190620006ca565b50806001908051906020019062000146929190620006ca565b505050620001696200015d6200038c60201b60201c565b6200039460201b60201c565b3483825162000179919062000a4d565b1115620001bd576040517f08c379a0000000000000000000000000000000000000000000000000000000008152600401620001b49062000b5b565b60405180910390fd5b82600a8190555081600960006101000a81548173ffffffffffffffffffffffffffffffffffffffff021916908373ffffffffffffffffffffffffffffffffffffffff16021790555060005b81518160ff16101562000382576000828260ff168151811062000230576200022f62000b7d565b5b6020026020010151116200027b576040517f08c379a0000000000000000000000000000000000000000000000000000000008152600401620002729062000bfc565b60405180910390fd5b62000290308260ff166200045a60201b60201c565b600b60405180606001604052808360ff1681526020013373ffffffffffffffffffffffffffffffffffffffff168152602001848460ff1681518110620002db57620002da62000b7d565b5b602002602001015181525090806001815401808255809150506001900390600052602060002090600302016000909190919091506000820151816000015560208201518160010160006101000a81548173ffffffffffffffffffffffffffffffffffffffff021916908373ffffffffffffffffffffffffffffffffffffffff1602179055506040820151816002015550508080620003799062000c2b565b91505062000208565b5050505062000e00565b600033905090565b6000600660009054906101000a900473ffffffffffffffffffffffffffffffffffffffff16905081600660006101000a81548173ffffffffffffffffffffffffffffffffffffffff021916908373ffffffffffffffffffffffffffffffffffffffff1602179055508173ffffffffffffffffffffffffffffffffffffffff168173ffffffffffffffffffffffffffffffffffffffff167f8be0079c531659141344cd1fd0a4f28419497f9722a3daafe3b4186f6b6457e060405160405180910390a35050565b600073ffffffffffffffffffffffffffffffffffffffff168273ffffffffffffffffffffffffffffffffffffffff161415620004cd576040517f08c379a0000000000000000000000000000000000000000000000000000000008152600401620004c49062000caa565b60405180910390fd5b620004de816200065460201b60201c565b1562000521576040517f08c379a0000000000000000000000000000000000000000000000000000000008152600401620005189062000d1c565b60405180910390fd5b6200053560008383620006c060201b60201c565b6001600360008473ffffffffffffffffffffffffffffffffffffffff1673ffffffffffffffffffffffffffffffffffffffff168152602001908152602001600020600082825462000587919062000d3e565b92505081905550816002600083815260200190815260200160002060006101000a81548173ffffffffffffffffffffffffffffffffffffffff021916908373ffffffffffffffffffffffffffffffffffffffff160217905550808273ffffffffffffffffffffffffffffffffffffffff16600073ffffffffffffffffffffffffffffffffffffffff167fddf252ad1be2c89b69c2b068fc378daa952ba7f163c4a11628f55a4df523b3ef60405160405180910390a46200065060008383620006c560201b60201c565b5050565b60008073ffffffffffffffffffffffffffffffffffffffff166002600084815260200190815260200160002060009054906101000a900473ffffffffffffffffffffffffffffffffffffffff1673ffffffffffffffffffffffffffffffffffffffff1614159050919050565b505050565b505050565b828054620006d89062000dca565b90600052602060002090601f016020900481019282620006fc576000855562000748565b82601f106200071757805160ff191683800117855562000748565b8280016001018555821562000748579182015b82811115620007475782518255916020019190600101906200072a565b5b5090506200075791906200075b565b5090565b5b80821115620007765760008160009055506001016200075c565b5090565b6000604051905090565b600080fd5b600080fd5b6000819050919050565b620007a3816200078e565b8114620007af57600080fd5b50565b600081519050620007c38162000798565b92915050565b600073ffffffffffffffffffffffffffffffffffffffff82169050919050565b6000620007f682620007c9565b9050919050565b6200080881620007e9565b81146200081457600080fd5b50565b6000815190506200082881620007fd565b92915050565b600080fd5b6000601f19601f8301169050919050565b7f4e487b7100000000000000000000000000000000000000000000000000000000600052604160045260246000fd5b6200087e8262000833565b810181811067ffffffffffffffff82111715620008a0576200089f62000844565b5b80604052505050565b6000620008b56200077a565b9050620008c3828262000873565b919050565b600067ffffffffffffffff821115620008e657620008e562000844565b5b602082029050602081019050919050565b600080fd5b6000620009136200090d84620008c8565b620008a9565b90508083825260208201905060208402830185811115620009395762000938620008f7565b5b835b81811015620009665780620009518882620007b2565b8452602084019350506020810190506200093b565b5050509392505050565b600082601f8301126200098857620009876200082e565b5b81516200099a848260208601620008fc565b91505092915050565b600080600060608486031215620009bf57620009be62000784565b5b6000620009cf86828701620007b2565b9350506020620009e28682870162000817565b925050604084015167ffffffffffffffff81111562000a065762000a0562000789565b5b62000a148682870162000970565b9150509250925092565b7f4e487b7100000000000000000000000000000000000000000000000000000000600052601160045260246000fd5b600062000a5a826200078e565b915062000a67836200078e565b9250817fffffffffffffffffffffffffffffffffffffffffffffffffffffffffffffffff048311821515161562000aa35762000aa262000a1e565b5b828202905092915050565b600082825260208201905092915050565b7f4465706c6f796572206d75737420706179206172746973742066656520666f7260008201527f206561636820746f6b656e206c6973746564206f6e20746865206d61726b657460208201527f706c616365000000000000000000000000000000000000000000000000000000604082015250565b600062000b4360458362000aae565b915062000b508262000abf565b606082019050919050565b6000602082019050818103600083015262000b768162000b34565b9050919050565b7f4e487b7100000000000000000000000000000000000000000000000000000000600052603260045260246000fd5b7f5072696365206d7573742062652067726561746572207468616e203000000000600082015250565b600062000be4601c8362000aae565b915062000bf18262000bac565b602082019050919050565b6000602082019050818103600083015262000c178162000bd5565b9050919050565b600060ff82169050919050565b600062000c388262000c1e565b915060ff82141562000c4f5762000c4e62000a1e565b5b600182019050919050565b7f4552433732313a206d696e7420746f20746865207a65726f2061646472657373600082015250565b600062000c9260208362000aae565b915062000c9f8262000c5a565b602082019050919050565b6000602082019050818103600083015262000cc58162000c83565b9050919050565b7f4552433732313a20746f6b656e20616c7265616479206d696e74656400000000600082015250565b600062000d04601c8362000aae565b915062000d118262000ccc565b602082019050919050565b6000602082019050818103600083015262000d378162000cf5565b9050919050565b600062000d4b826200078e565b915062000d58836200078e565b9250827fffffffffffffffffffffffffffffffffffffffffffffffffffffffffffffffff0382111562000d905762000d8f62000a1e565b5b828201905092915050565b7f4e487b7100000000000000000000000000000000000000000000000000000000600052602260045260246000fd5b6000600282049050600182168062000de357607f821691505b6020821081141562000dfa5762000df962000d9b565b5b50919050565b61378f8062000e106000396000f3fe6080604052600436106101815760003560e01c806384856482116100d1578063a22cb4651161008a578063b88d4fde11610064578063b88d4fde14610558578063c87b56dd14610581578063e985e9c5146105be578063f2fde38b146105fb57610181565b8063a22cb465146104d9578063a864745f14610502578063b815352f1461052d57610181565b806384856482146103c357806386e2a0ba1461040257806386fdbbb01461042d5780638da5cb5b1461045857806395d89b411461048357806397b0d442146104ae57610181565b806323b872dd1161013e5780636352211e116101185780636352211e1461030957806370a0823114610346578063715018a6146103835780637b44a97e1461039a57610181565b806323b872dd1461029b5780632d2f8349146102c457806342842e0e146102e057610181565b806301ffc9a71461018657806303e6af2e146101c357806306fdde03146101df578063081812fc1461020a578063095ea7b3146102475780632151f91f14610270575b600080fd5b34801561019257600080fd5b506101ad60048036038101906101a89190612390565b610624565b6040516101ba91906123d8565b60405180910390f35b6101dd60048036038101906101d89190612429565b610706565b005b3480156101eb57600080fd5b506101f4610934565b60405161020191906124ef565b60405180910390f35b34801561021657600080fd5b50610231600480360381019061022c9190612429565b6109c6565b60405161023e9190612552565b60405180910390f35b34801561025357600080fd5b5061026e60048036038101906102699190612599565b610a4b565b005b34801561027c57600080fd5b50610285610b63565b60405161029291906126fa565b60405180910390f35b3480156102a757600080fd5b506102c260048036038101906102bd919061271c565b610cfc565b005b6102de60048036038101906102d9919061276f565b610d5c565b005b3480156102ec57600080fd5b506103076004803603810190610302919061271c565b610ecf565b005b34801561031557600080fd5b50610330600480360381019061032b9190612429565b610eef565b60405161033d9190612552565b60405180910390f35b34801561035257600080fd5b5061036d600480360381019061036891906127af565b610fa1565b60405161037a91906127eb565b60405180910390f35b34801561038f57600080fd5b50610398611059565b005b3480156103a657600080fd5b506103c160048036038101906103bc9190612429565b6110e1565b005b3480156103cf57600080fd5b506103ea60048036038101906103e59190612429565b611167565b6040516103f993929190612815565b60405180910390f35b34801561040e57600080fd5b506104176111c1565b6040516104249190612552565b60405180910390f35b34801561043957600080fd5b506104426111e7565b60405161044f91906124ef565b60405180910390f35b34801561046457600080fd5b5061046d611275565b60405161047a9190612552565b60405180910390f35b34801561048f57600080fd5b5061049861129f565b6040516104a591906124ef565b60405180910390f35b3480156104ba57600080fd5b506104c3611331565b6040516104d091906124ef565b60405180910390f35b3480156104e557600080fd5b5061050060048036038101906104fb9190612878565b6113bf565b005b34801561050e57600080fd5b506105176113d5565b60405161052491906126fa565b60405180910390f35b34801561053957600080fd5b506105426115ab565b60405161054f91906127eb565b60405180910390f35b34801561056457600080fd5b5061057f600480360381019061057a91906129ed565b6115b1565b005b34801561058d57600080fd5b506105a860048036038101906105a39190612429565b611613565b6040516105b591906124ef565b60405180910390f35b3480156105ca57600080fd5b506105e560048036038101906105e09190612a70565b6116ba565b6040516105f291906123d8565b60405180910390f35b34801561060757600080fd5b50610622600480360381019061061d91906127af565b61174e565b005b60007f80ac58cd000000000000000000000000000000000000000000000000000000007bffffffffffffffffffffffffffffffffffffffffffffffffffffffff1916827bffffffffffffffffffffffffffffffffffffffffffffffffffffffff191614806106ef57507f5b5e139f000000000000000000000000000000000000000000000000000000007bffffffffffffffffffffffffffffffffffffffffffffffffffffffff1916827bffffffffffffffffffffffffffffffffffffffffffffffffffffffff1916145b806106ff57506106fe82611846565b5b9050919050565b6000600b828154811061071c5761071b612ab0565b5b90600052602060002090600302016002015490506000600b838154811061074657610745612ab0565b5b906000526020600020906003020160010160009054906101000a900473ffffffffffffffffffffffffffffffffffffffff1690508134146107bc576040517f08c379a00000000000000000000000000000000000000000000000000000000081526004016107b390612b51565b60405180910390fd5b6000600b84815481106107d2576107d1612ab0565b5b906000526020600020906003020160010160006101000a81548173ffffffffffffffffffffffffffffffffffffffff021916908373ffffffffffffffffffffffffffffffffffffffff16021790555061082c3033856118b0565b600960009054906101000a900473ffffffffffffffffffffffffffffffffffffffff1673ffffffffffffffffffffffffffffffffffffffff166108fc600a549081150290604051600060405180830381858888f19350505050158015610896573d6000803e3d6000fd5b508073ffffffffffffffffffffffffffffffffffffffff166108fc349081150290604051600060405180830381858888f193505050501580156108dd573d6000803e3d6000fd5b508073ffffffffffffffffffffffffffffffffffffffff16837f8c86d3a42dcc804b5fbd9890099d454637fdb0ceae8d3f8fd5e27e244c8f4a773385604051610927929190612b71565b60405180910390a3505050565b60606000805461094390612bc9565b80601f016020809104026020016040519081016040528092919081815260200182805461096f90612bc9565b80156109bc5780601f10610991576101008083540402835291602001916109bc565b820191906000526020600020905b81548152906001019060200180831161099f57829003601f168201915b5050505050905090565b60006109d182611b17565b610a10576040517f08c379a0000000000000000000000000000000000000000000000000000000008152600401610a0790612c6d565b60405180910390fd5b6004600083815260200190815260200160002060009054906101000a900473ffffffffffffffffffffffffffffffffffffffff169050919050565b6000610a5682610eef565b90508073ffffffffffffffffffffffffffffffffffffffff168373ffffffffffffffffffffffffffffffffffffffff161415610ac7576040517f08c379a0000000000000000000000000000000000000000000000000000000008152600401610abe90612cff565b60405180910390fd5b8073ffffffffffffffffffffffffffffffffffffffff16610ae6611b83565b73ffffffffffffffffffffffffffffffffffffffff161480610b155750610b1481610b0f611b83565b6116ba565b5b610b54576040517f08c379a0000000000000000000000000000000000000000000000000000000008152600401610b4b90612d91565b60405180910390fd5b610b5e8383611b8b565b505050565b60606000610b7033610fa1565b905060008167ffffffffffffffff811115610b8e57610b8d6128c2565b5b604051908082528060200260200182016040528015610bc757816020015b610bb46122ed565b815260200190600190039081610bac5790505b509050600080600090505b600b80549050811015610cf2573373ffffffffffffffffffffffffffffffffffffffff16610bff82610eef565b73ffffffffffffffffffffffffffffffffffffffff161415610cdf57600b8181548110610c2f57610c2e612ab0565b5b9060005260206000209060030201604051806060016040529081600082015481526020016001820160009054906101000a900473ffffffffffffffffffffffffffffffffffffffff1673ffffffffffffffffffffffffffffffffffffffff1673ffffffffffffffffffffffffffffffffffffffff168152602001600282015481525050838381518110610cc557610cc4612ab0565b5b60200260200101819052508180610cdb90612de0565b9250505b8080610cea90612de0565b915050610bd2565b5081935050505090565b610d0d610d07611b83565b82611c44565b610d4c576040517f08c379a0000000000000000000000000000000000000000000000000000000008152600401610d4390612e9b565b60405180910390fd5b610d578383836118b0565b505050565b600a543414610da0576040517f08c379a0000000000000000000000000000000000000000000000000000000008152600401610d9790612f07565b60405180910390fd5b60008111610de3576040517f08c379a0000000000000000000000000000000000000000000000000000000008152600401610dda90612f73565b60405180910390fd5b80600b8381548110610df857610df7612ab0565b5b90600052602060002090600302016002018190555033600b8381548110610e2257610e21612ab0565b5b906000526020600020906003020160010160006101000a81548173ffffffffffffffffffffffffffffffffffffffff021916908373ffffffffffffffffffffffffffffffffffffffff160217905550610e7c3330846118b0565b3373ffffffffffffffffffffffffffffffffffffffff16827f75facf0aa17775d7819212cc5df014ba304ba58cdcbe35cd36d56577abd2b44383604051610ec391906127eb565b60405180910390a35050565b610eea838383604051806020016040528060008152506115b1565b505050565b6000806002600084815260200190815260200160002060009054906101000a900473ffffffffffffffffffffffffffffffffffffffff169050600073ffffffffffffffffffffffffffffffffffffffff168173ffffffffffffffffffffffffffffffffffffffff161415610f98576040517f08c379a0000000000000000000000000000000000000000000000000000000008152600401610f8f90613005565b60405180910390fd5b80915050919050565b60008073ffffffffffffffffffffffffffffffffffffffff168273ffffffffffffffffffffffffffffffffffffffff161415611012576040517f08c379a000000000000000000000000000000000000000000000000000000000815260040161100990613097565b60405180910390fd5b600360008373ffffffffffffffffffffffffffffffffffffffff1673ffffffffffffffffffffffffffffffffffffffff168152602001908152602001600020549050919050565b611061611b83565b73ffffffffffffffffffffffffffffffffffffffff1661107f611275565b73ffffffffffffffffffffffffffffffffffffffff16146110d5576040517f08c379a00000000000000000000000000000000000000000000000000000000081526004016110cc90613103565b60405180910390fd5b6110df6000611d22565b565b6110e9611b83565b73ffffffffffffffffffffffffffffffffffffffff16611107611275565b73ffffffffffffffffffffffffffffffffffffffff161461115d576040517f08c379a000000000000000000000000000000000000000000000000000000000815260040161115490613103565b60405180910390fd5b80600a8190555050565b600b818154811061117757600080fd5b90600052602060002090600302016000915090508060000154908060010160009054906101000a900473ffffffffffffffffffffffffffffffffffffffff16908060020154905083565b600960009054906101000a900473ffffffffffffffffffffffffffffffffffffffff1681565b600780546111f490612bc9565b80601f016020809104026020016040519081016040528092919081815260200182805461122090612bc9565b801561126d5780601f106112425761010080835404028352916020019161126d565b820191906000526020600020905b81548152906001019060200180831161125057829003601f168201915b505050505081565b6000600660009054906101000a900473ffffffffffffffffffffffffffffffffffffffff16905090565b6060600180546112ae90612bc9565b80601f01602080910402602001604051908101604052809291908181526020018280546112da90612bc9565b80156113275780601f106112fc57610100808354040283529160200191611327565b820191906000526020600020905b81548152906001019060200180831161130a57829003601f168201915b5050505050905090565b6008805461133e90612bc9565b80601f016020809104026020016040519081016040528092919081815260200182805461136a90612bc9565b80156113b75780601f1061138c576101008083540402835291602001916113b7565b820191906000526020600020905b81548152906001019060200180831161139a57829003601f168201915b505050505081565b6113d16113ca611b83565b8383611de8565b5050565b606060006113e230610fa1565b905060008167ffffffffffffffff811115611400576113ff6128c2565b5b60405190808252806020026020018201604052801561143957816020015b6114266122ed565b81526020019060019003908161141e5790505b509050600080600090505b600b805490508110156115a157600073ffffffffffffffffffffffffffffffffffffffff16600b828154811061147d5761147c612ab0565b5b906000526020600020906003020160010160009054906101000a900473ffffffffffffffffffffffffffffffffffffffff1673ffffffffffffffffffffffffffffffffffffffff161461158e57600b81815481106114de576114dd612ab0565b5b9060005260206000209060030201604051806060016040529081600082015481526020016001820160009054906101000a900473ffffffffffffffffffffffffffffffffffffffff1673ffffffffffffffffffffffffffffffffffffffff1673ffffffffffffffffffffffffffffffffffffffff16815260200160028201548152505083838151811061157457611573612ab0565b5b6020026020010181905250818061158a90612de0565b9250505b808061159990612de0565b915050611444565b5081935050505090565b600a5481565b6115c26115bc611b83565b83611c44565b611601576040517f08c379a00000000000000000000000000000000000000000000000000000000081526004016115f890612e9b565b60405180910390fd5b61160d84848484611f55565b50505050565b606061161e82611b17565b61165d576040517f08c379a000000000000000000000000000000000000000000000000000000000815260040161165490613195565b60405180910390fd5b6000611667611fb1565b9050600081511161168757604051806020016040528060008152506116b2565b8061169184611fc8565b6040516020016116a29291906131f1565b6040516020818303038152906040525b915050919050565b6000600560008473ffffffffffffffffffffffffffffffffffffffff1673ffffffffffffffffffffffffffffffffffffffff16815260200190815260200160002060008373ffffffffffffffffffffffffffffffffffffffff1673ffffffffffffffffffffffffffffffffffffffff16815260200190815260200160002060009054906101000a900460ff16905092915050565b611756611b83565b73ffffffffffffffffffffffffffffffffffffffff16611774611275565b73ffffffffffffffffffffffffffffffffffffffff16146117ca576040517f08c379a00000000000000000000000000000000000000000000000000000000081526004016117c190613103565b60405180910390fd5b600073ffffffffffffffffffffffffffffffffffffffff168173ffffffffffffffffffffffffffffffffffffffff16141561183a576040517f08c379a000000000000000000000000000000000000000000000000000000000815260040161183190613287565b60405180910390fd5b61184381611d22565b50565b60007f01ffc9a7000000000000000000000000000000000000000000000000000000007bffffffffffffffffffffffffffffffffffffffffffffffffffffffff1916827bffffffffffffffffffffffffffffffffffffffffffffffffffffffff1916149050919050565b8273ffffffffffffffffffffffffffffffffffffffff166118d082610eef565b73ffffffffffffffffffffffffffffffffffffffff1614611926576040517f08c379a000000000000000000000000000000000000000000000000000000000815260040161191d90613319565b60405180910390fd5b600073ffffffffffffffffffffffffffffffffffffffff168273ffffffffffffffffffffffffffffffffffffffff161415611996576040517f08c379a000000000000000000000000000000000000000000000000000000000815260040161198d906133ab565b60405180910390fd5b6119a1838383612129565b6119ac600082611b8b565b6001600360008573ffffffffffffffffffffffffffffffffffffffff1673ffffffffffffffffffffffffffffffffffffffff16815260200190815260200160002060008282546119fc91906133cb565b925050819055506001600360008473ffffffffffffffffffffffffffffffffffffffff1673ffffffffffffffffffffffffffffffffffffffff1681526020019081526020016000206000828254611a5391906133ff565b92505081905550816002600083815260200190815260200160002060006101000a81548173ffffffffffffffffffffffffffffffffffffffff021916908373ffffffffffffffffffffffffffffffffffffffff160217905550808273ffffffffffffffffffffffffffffffffffffffff168473ffffffffffffffffffffffffffffffffffffffff167fddf252ad1be2c89b69c2b068fc378daa952ba7f163c4a11628f55a4df523b3ef60405160405180910390a4611b1283838361212e565b505050565b60008073ffffffffffffffffffffffffffffffffffffffff166002600084815260200190815260200160002060009054906101000a900473ffffffffffffffffffffffffffffffffffffffff1673ffffffffffffffffffffffffffffffffffffffff1614159050919050565b600033905090565b816004600083815260200190815260200160002060006101000a81548173ffffffffffffffffffffffffffffffffffffffff021916908373ffffffffffffffffffffffffffffffffffffffff160217905550808273ffffffffffffffffffffffffffffffffffffffff16611bfe83610eef565b73ffffffffffffffffffffffffffffffffffffffff167f8c5be1e5ebec7d5bd14f71427d1e84f3dd0314c0f7b2291e5b200ac8c7c3b92560405160405180910390a45050565b6000611c4f82611b17565b611c8e576040517f08c379a0000000000000000000000000000000000000000000000000000000008152600401611c85906134c7565b60405180910390fd5b6000611c9983610eef565b90508073ffffffffffffffffffffffffffffffffffffffff168473ffffffffffffffffffffffffffffffffffffffff161480611d0857508373ffffffffffffffffffffffffffffffffffffffff16611cf0846109c6565b73ffffffffffffffffffffffffffffffffffffffff16145b80611d195750611d1881856116ba565b5b91505092915050565b6000600660009054906101000a900473ffffffffffffffffffffffffffffffffffffffff16905081600660006101000a81548173ffffffffffffffffffffffffffffffffffffffff021916908373ffffffffffffffffffffffffffffffffffffffff1602179055508173ffffffffffffffffffffffffffffffffffffffff168173ffffffffffffffffffffffffffffffffffffffff167f8be0079c531659141344cd1fd0a4f28419497f9722a3daafe3b4186f6b6457e060405160405180910390a35050565b8173ffffffffffffffffffffffffffffffffffffffff168373ffffffffffffffffffffffffffffffffffffffff161415611e57576040517f08c379a0000000000000000000000000000000000000000000000000000000008152600401611e4e90613533565b60405180910390fd5b80600560008573ffffffffffffffffffffffffffffffffffffffff1673ffffffffffffffffffffffffffffffffffffffff16815260200190815260200160002060008473ffffffffffffffffffffffffffffffffffffffff1673ffffffffffffffffffffffffffffffffffffffff16815260200190815260200160002060006101000a81548160ff0219169083151502179055508173ffffffffffffffffffffffffffffffffffffffff168373ffffffffffffffffffffffffffffffffffffffff167f17307eab39ab6107e8899845ad3d59bd9653f200f220920489ca2b5937696c3183604051611f4891906123d8565b60405180910390a3505050565b611f608484846118b0565b611f6c84848484612133565b611fab576040517f08c379a0000000000000000000000000000000000000000000000000000000008152600401611fa2906135c5565b60405180910390fd5b50505050565b606060405180602001604052806000815250905090565b60606000821415612010576040518060400160405280600181526020017f30000000000000000000000000000000000000000000000000000000000000008152509050612124565b600082905060005b6000821461204257808061202b90612de0565b915050600a8261203b9190613614565b9150612018565b60008167ffffffffffffffff81111561205e5761205d6128c2565b5b6040519080825280601f01601f1916602001820160405280156120905781602001600182028036833780820191505090505b5090505b6000851461211d576001826120a991906133cb565b9150600a856120b89190613645565b60306120c491906133ff565b60f81b8183815181106120da576120d9612ab0565b5b60200101907effffffffffffffffffffffffffffffffffffffffffffffffffffffffffffff1916908160001a905350600a856121169190613614565b9450612094565b8093505050505b919050565b505050565b505050565b60006121548473ffffffffffffffffffffffffffffffffffffffff166122ca565b156122bd578373ffffffffffffffffffffffffffffffffffffffff1663150b7a0261217d611b83565b8786866040518563ffffffff1660e01b815260040161219f94939291906136cb565b602060405180830381600087803b1580156121b957600080fd5b505af19250505080156121ea57506040513d601f19601f820116820180604052508101906121e7919061372c565b60015b61226d573d806000811461221a576040519150601f19603f3d011682016040523d82523d6000602084013e61221f565b606091505b50600081511415612265576040517f08c379a000000000000000000000000000000000000000000000000000000000815260040161225c906135c5565b60405180910390fd5b805181602001fd5b63150b7a0260e01b7bffffffffffffffffffffffffffffffffffffffffffffffffffffffff1916817bffffffffffffffffffffffffffffffffffffffffffffffffffffffff1916149150506122c2565b600190505b949350505050565b6000808273ffffffffffffffffffffffffffffffffffffffff163b119050919050565b604051806060016040528060008152602001600073ffffffffffffffffffffffffffffffffffffffff168152602001600081525090565b6000604051905090565b600080fd5b600080fd5b60007fffffffff0000000000000000000000000000000000000000000000000000000082169050919050565b61236d81612338565b811461237857600080fd5b50565b60008135905061238a81612364565b92915050565b6000602082840312156123a6576123a561232e565b5b60006123b48482850161237b565b91505092915050565b60008115159050919050565b6123d2816123bd565b82525050565b60006020820190506123ed60008301846123c9565b92915050565b6000819050919050565b612406816123f3565b811461241157600080fd5b50565b600081359050612423816123fd565b92915050565b60006020828403121561243f5761243e61232e565b5b600061244d84828501612414565b91505092915050565b600081519050919050565b600082825260208201905092915050565b60005b83811015612490578082015181840152602081019050612475565b8381111561249f576000848401525b50505050565b6000601f19601f8301169050919050565b60006124c182612456565b6124cb8185612461565b93506124db818560208601612472565b6124e4816124a5565b840191505092915050565b6000602082019050818103600083015261250981846124b6565b905092915050565b600073ffffffffffffffffffffffffffffffffffffffff82169050919050565b600061253c82612511565b9050919050565b61254c81612531565b82525050565b60006020820190506125676000830184612543565b92915050565b61257681612531565b811461258157600080fd5b50565b6000813590506125938161256d565b92915050565b600080604083850312156125b0576125af61232e565b5b60006125be85828601612584565b92505060206125cf85828601612414565b9150509250929050565b600081519050919050565b600082825260208201905092915050565b6000819050602082019050919050565b61260e816123f3565b82525050565b600061261f82612511565b9050919050565b61262f81612614565b82525050565b60608201600082015161264b6000850182612605565b50602082015161265e6020850182612626565b5060408201516126716040850182612605565b50505050565b60006126838383612635565b60608301905092915050565b6000602082019050919050565b60006126a7826125d9565b6126b181856125e4565b93506126bc836125f5565b8060005b838110156126ed5781516126d48882612677565b97506126df8361268f565b9250506001810190506126c0565b5085935050505092915050565b60006020820190508181036000830152612714818461269c565b905092915050565b6000806000606084860312156127355761273461232e565b5b600061274386828701612584565b935050602061275486828701612584565b925050604061276586828701612414565b9150509250925092565b600080604083850312156127865761278561232e565b5b600061279485828601612414565b92505060206127a585828601612414565b9150509250929050565b6000602082840312156127c5576127c461232e565b5b60006127d384828501612584565b91505092915050565b6127e5816123f3565b82525050565b600060208201905061280060008301846127dc565b92915050565b61280f81612614565b82525050565b600060608201905061282a60008301866127dc565b6128376020830185612806565b61284460408301846127dc565b949350505050565b612855816123bd565b811461286057600080fd5b50565b6000813590506128728161284c565b92915050565b6000806040838503121561288f5761288e61232e565b5b600061289d85828601612584565b92505060206128ae85828601612863565b9150509250929050565b600080fd5b600080fd5b7f4e487b7100000000000000000000000000000000000000000000000000000000600052604160045260246000fd5b6128fa826124a5565b810181811067ffffffffffffffff82111715612919576129186128c2565b5b80604052505050565b600061292c612324565b905061293882826128f1565b919050565b600067ffffffffffffffff821115612958576129576128c2565b5b612961826124a5565b9050602081019050919050565b82818337600083830152505050565b600061299061298b8461293d565b612922565b9050828152602081018484840111156129ac576129ab6128bd565b5b6129b784828561296e565b509392505050565b600082601f8301126129d4576129d36128b8565b5b81356129e484826020860161297d565b91505092915050565b60008060008060808587031215612a0757612a0661232e565b5b6000612a1587828801612584565b9450506020612a2687828801612584565b9350506040612a3787828801612414565b925050606085013567ffffffffffffffff811115612a5857612a57612333565b5b612a64878288016129bf565b91505092959194509250565b60008060408385031215612a8757612a8661232e565b5b6000612a9585828601612584565b9250506020612aa685828601612584565b9150509250929050565b7f4e487b7100000000000000000000000000000000000000000000000000000000600052603260045260246000fd5b7f506c656173652073656e64207468652061736b696e6720707269636520696e2060008201527f6f7264657220746f20636f6d706c657465207468652070757263686173650000602082015250565b6000612b3b603e83612461565b9150612b4682612adf565b604082019050919050565b60006020820190508181036000830152612b6a81612b2e565b9050919050565b6000604082019050612b866000830185612543565b612b9360208301846127dc565b9392505050565b7f4e487b7100000000000000000000000000000000000000000000000000000000600052602260045260246000fd5b60006002820490506001821680612be157607f821691505b60208210811415612bf557612bf4612b9a565b5b50919050565b7f4552433732313a20617070726f76656420717565727920666f72206e6f6e657860008201527f697374656e7420746f6b656e0000000000000000000000000000000000000000602082015250565b6000612c57602c83612461565b9150612c6282612bfb565b604082019050919050565b60006020820190508181036000830152612c8681612c4a565b9050919050565b7f4552433732313a20617070726f76616c20746f2063757272656e74206f776e6560008201527f7200000000000000000000000000000000000000000000000000000000000000602082015250565b6000612ce9602183612461565b9150612cf482612c8d565b604082019050919050565b60006020820190508181036000830152612d1881612cdc565b9050919050565b7f4552433732313a20617070726f76652063616c6c6572206973206e6f74206f7760008201527f6e6572206e6f7220617070726f76656420666f7220616c6c0000000000000000602082015250565b6000612d7b603883612461565b9150612d8682612d1f565b604082019050919050565b60006020820190508181036000830152612daa81612d6e565b9050919050565b7f4e487b7100000000000000000000000000000000000000000000000000000000600052601160045260246000fd5b6000612deb826123f3565b91507fffffffffffffffffffffffffffffffffffffffffffffffffffffffffffffffff821415612e1e57612e1d612db1565b5b600182019050919050565b7f4552433732313a207472616e736665722063616c6c6572206973206e6f74206f60008201527f776e6572206e6f7220617070726f766564000000000000000000000000000000602082015250565b6000612e85603183612461565b9150612e9082612e29565b604082019050919050565b60006020820190508181036000830152612eb481612e78565b9050919050565b7f4d7573742070617920726f79616c747900000000000000000000000000000000600082015250565b6000612ef1601083612461565b9150612efc82612ebb565b602082019050919050565b60006020820190508181036000830152612f2081612ee4565b9050919050565b7f5072696365206d7573742062652067726561746572207468616e207a65726f00600082015250565b6000612f5d601f83612461565b9150612f6882612f27565b602082019050919050565b60006020820190508181036000830152612f8c81612f50565b9050919050565b7f4552433732313a206f776e657220717565727920666f72206e6f6e657869737460008201527f656e7420746f6b656e0000000000000000000000000000000000000000000000602082015250565b6000612fef602983612461565b9150612ffa82612f93565b604082019050919050565b6000602082019050818103600083015261301e81612fe2565b9050919050565b7f4552433732313a2062616c616e636520717565727920666f7220746865207a6560008201527f726f206164647265737300000000000000000000000000000000000000000000602082015250565b6000613081602a83612461565b915061308c82613025565b604082019050919050565b600060208201905081810360008301526130b081613074565b9050919050565b7f4f776e61626c653a2063616c6c6572206973206e6f7420746865206f776e6572600082015250565b60006130ed602083612461565b91506130f8826130b7565b602082019050919050565b6000602082019050818103600083015261311c816130e0565b9050919050565b7f4552433732314d657461646174613a2055524920717565727920666f72206e6f60008201527f6e6578697374656e7420746f6b656e0000000000000000000000000000000000602082015250565b600061317f602f83612461565b915061318a82613123565b604082019050919050565b600060208201905081810360008301526131ae81613172565b9050919050565b600081905092915050565b60006131cb82612456565b6131d581856131b5565b93506131e5818560208601612472565b80840191505092915050565b60006131fd82856131c0565b915061320982846131c0565b91508190509392505050565b7f4f776e61626c653a206e6577206f776e657220697320746865207a65726f206160008201527f6464726573730000000000000000000000000000000000000000000000000000602082015250565b6000613271602683612461565b915061327c82613215565b604082019050919050565b600060208201905081810360008301526132a081613264565b9050919050565b7f4552433732313a207472616e736665722066726f6d20696e636f72726563742060008201527f6f776e6572000000000000000000000000000000000000000000000000000000602082015250565b6000613303602583612461565b915061330e826132a7565b604082019050919050565b60006020820190508181036000830152613332816132f6565b9050919050565b7f4552433732313a207472616e7366657220746f20746865207a65726f2061646460008201527f7265737300000000000000000000000000000000000000000000000000000000602082015250565b6000613395602483612461565b91506133a082613339565b604082019050919050565b600060208201905081810360008301526133c481613388565b9050919050565b60006133d6826123f3565b91506133e1836123f3565b9250828210156133f4576133f3612db1565b5b828203905092915050565b600061340a826123f3565b9150613415836123f3565b9250827fffffffffffffffffffffffffffffffffffffffffffffffffffffffffffffffff0382111561344a57613449612db1565b5b828201905092915050565b7f4552433732313a206f70657261746f7220717565727920666f72206e6f6e657860008201527f697374656e7420746f6b656e0000000000000000000000000000000000000000602082015250565b60006134b1602c83612461565b91506134bc82613455565b604082019050919050565b600060208201905081810360008301526134e0816134a4565b9050919050565b7f4552433732313a20617070726f766520746f2063616c6c657200000000000000600082015250565b600061351d601983612461565b9150613528826134e7565b602082019050919050565b6000602082019050818103600083015261354c81613510565b9050919050565b7f4552433732313a207472616e7366657220746f206e6f6e20455243373231526560008201527f63656976657220696d706c656d656e7465720000000000000000000000000000602082015250565b60006135af603283612461565b91506135ba82613553565b604082019050919050565b600060208201905081810360008301526135de816135a2565b9050919050565b7f4e487b7100000000000000000000000000000000000000000000000000000000600052601260045260246000fd5b600061361f826123f3565b915061362a836123f3565b92508261363a576136396135e5565b5b828204905092915050565b6000613650826123f3565b915061365b836123f3565b92508261366b5761366a6135e5565b5b828206905092915050565b600081519050919050565b600082825260208201905092915050565b600061369d82613676565b6136a78185613681565b93506136b7818560208601612472565b6136c0816124a5565b840191505092915050565b60006080820190506136e06000830187612543565b6136ed6020830186612543565b6136fa60408301856127dc565b818103606083015261370c8184613692565b905095945050505050565b60008151905061372681612364565b92915050565b6000602082840312156137425761374161232e565b5b600061375084828501613717565b9150509291505056fea26469706673582212202dccabb012bd3e0a5f8dd1bb1e26806ffc0ec01d43ab43cd1881a6ade3447c4e64736f6c6343000809003368747470733a2f2f62616679626569616172726b666c617269326564356e3433736d34357a6a6671697a756d696e7a726964737276657462797865346b7834666a66692e697066732e6e667473746f726167652e6c696e6b2f",
  "linkReferences": {},
  "deployedLinkReferences": {}
}