{
  "_format": "hh-sol-artifact-1",
  "contractName": "TwoTierCampaign",
  "sourceName": "contracts/TwoTierCampaign.sol",
  "abi": [
    {
      "inputs": [
        {
          "internalType": "uint256",
          "name": "minimum",
          "type": "uint256"
        },
        {
          "internalType": "address",
          "name": "creator",
          "type": "address"
        },
        {
          "internalType": "uint256",
          "name": "rewardPercent",
          "type": "uint256"
        },
        {
          "internalType": "uint256",
          "name": "tier2Amount",
          "type": "uint256"
        }
      ],
      "stateMutability": "nonpayable",
      "type": "constructor"
    },
    {
      "inputs": [
        {
          "internalType": "uint256",
          "name": "index",
          "type": "uint256"
        }
      ],
      "name": "approveRequest",
      "outputs": [],
      "stateMutability": "nonpayable",
      "type": "function"
    },
    {
      "inputs": [
        {
          "internalType": "address",
          "name": "",
          "type": "address"
        }
      ],
      "name": "approvers",
      "outputs": [
        {
          "internalType": "bool",
          "name": "",
          "type": "bool"
        }
      ],
      "stateMutability": "view",
      "type": "function"
    },
    {
      "inputs": [],
      "name": "approversCount",
      "outputs": [
        {
          "internalType": "uint256",
          "name": "",
          "type": "uint256"
        }
      ],
      "stateMutability": "view",
      "type": "function"
    },
    {
      "inputs": [],
      "name": "contribute",
      "outputs": [],
      "stateMutability": "payable",
      "type": "function"
    },
    {
      "inputs": [
        {
          "internalType": "address",
          "name": "",
          "type": "address"
        }
      ],
      "name": "contributorTier",
      "outputs": [
        {
          "internalType": "uint256",
          "name": "",
          "type": "uint256"
        }
      ],
      "stateMutability": "view",
      "type": "function"
    },
    {
      "inputs": [
        {
          "internalType": "uint256",
          "name": "",
          "type": "uint256"
        }
      ],
      "name": "contributors",
      "outputs": [
        {
          "internalType": "address payable",
          "name": "",
          "type": "address"
        }
      ],
      "stateMutability": "view",
      "type": "function"
    },
    {
      "inputs": [
        {
          "internalType": "string",
          "name": "description",
          "type": "string"
        },
        {
          "internalType": "uint256",
          "name": "value",
          "type": "uint256"
        },
        {
          "internalType": "address payable",
          "name": "recipient",
          "type": "address"
        }
      ],
      "name": "createRequest",
      "outputs": [],
      "stateMutability": "nonpayable",
      "type": "function"
    },
    {
      "inputs": [
        {
          "internalType": "uint256",
          "name": "index",
          "type": "uint256"
        }
      ],
      "name": "finalizeRequest",
      "outputs": [],
      "stateMutability": "nonpayable",
      "type": "function"
    },
    {
      "inputs": [
        {
          "internalType": "address",
          "name": "account",
          "type": "address"
        }
      ],
      "name": "getContribution",
      "outputs": [
        {
          "internalType": "uint256",
          "name": "",
          "type": "uint256"
        }
      ],
      "stateMutability": "view",
      "type": "function"
    },
    {
      "inputs": [
        {
          "internalType": "address",
          "name": "account",
          "type": "address"
        },
        {
          "internalType": "uint256",
          "name": "index",
          "type": "uint256"
        }
      ],
      "name": "getRequestContribution",
      "outputs": [
        {
          "internalType": "uint256",
          "name": "",
          "type": "uint256"
        }
      ],
      "stateMutability": "view",
      "type": "function"
    },
    {
      "inputs": [],
      "name": "getSummary",
      "outputs": [
        {
          "internalType": "uint256",
          "name": "",
          "type": "uint256"
        },
        {
          "internalType": "uint256",
          "name": "",
          "type": "uint256"
        },
        {
          "internalType": "uint256",
          "name": "",
          "type": "uint256"
        },
        {
          "internalType": "uint256",
          "name": "",
          "type": "uint256"
        },
        {
          "internalType": "address",
          "name": "",
          "type": "address"
        }
      ],
      "stateMutability": "view",
      "type": "function"
    },
    {
      "inputs": [],
      "name": "manager",
      "outputs": [
        {
          "internalType": "address",
          "name": "",
          "type": "address"
        }
      ],
      "stateMutability": "view",
      "type": "function"
    },
    {
      "inputs": [],
      "name": "minimumContribution",
      "outputs": [
        {
          "internalType": "uint256",
          "name": "",
          "type": "uint256"
        }
      ],
      "stateMutability": "view",
      "type": "function"
    },
    {
      "inputs": [],
      "name": "numRequests",
      "outputs": [
        {
          "internalType": "uint256",
          "name": "",
          "type": "uint256"
        }
      ],
      "stateMutability": "view",
      "type": "function"
    },
    {
      "inputs": [],
      "name": "payRewards",
      "outputs": [],
      "stateMutability": "nonpayable",
      "type": "function"
    },
    {
      "inputs": [
        {
          "internalType": "address",
          "name": "",
          "type": "address"
        },
        {
          "internalType": "uint256",
          "name": "",
          "type": "uint256"
        }
      ],
      "name": "requestContributions",
      "outputs": [
        {
          "internalType": "uint256",
          "name": "",
          "type": "uint256"
        }
      ],
      "stateMutability": "view",
      "type": "function"
    },
    {
      "inputs": [
        {
          "internalType": "uint256",
          "name": "",
          "type": "uint256"
        }
      ],
      "name": "requests",
      "outputs": [
        {
          "internalType": "string",
          "name": "description",
          "type": "string"
        },
        {
          "internalType": "uint256",
          "name": "value",
          "type": "uint256"
        },
        {
          "internalType": "address payable",
          "name": "recipient",
          "type": "address"
        },
        {
          "internalType": "bool",
          "name": "complete",
          "type": "bool"
        },
        {
          "internalType": "uint256",
          "name": "approvalCount",
          "type": "uint256"
        }
      ],
      "stateMutability": "view",
      "type": "function"
    },
    {
      "inputs": [],
      "name": "rewardPercentage",
      "outputs": [
        {
          "internalType": "uint256",
          "name": "",
          "type": "uint256"
        }
      ],
      "stateMutability": "view",
      "type": "function"
    },
    {
      "inputs": [
        {
          "internalType": "uint256",
          "name": "index",
          "type": "uint256"
        }
      ],
      "name": "setRequestContribution",
      "outputs": [],
      "stateMutability": "payable",
      "type": "function"
    },
    {
      "inputs": [],
      "name": "tier1Counter",
      "outputs": [
        {
          "internalType": "uint256",
          "name": "",
          "type": "uint256"
        }
      ],
      "stateMutability": "view",
      "type": "function"
    },
    {
      "inputs": [],
      "name": "tier2Counter",
      "outputs": [
        {
          "internalType": "uint256",
          "name": "",
          "type": "uint256"
        }
      ],
      "stateMutability": "view",
      "type": "function"
    },
    {
      "inputs": [],
      "name": "tierTwoContribution",
      "outputs": [
        {
          "internalType": "uint256",
          "name": "",
          "type": "uint256"
        }
      ],
      "stateMutability": "view",
      "type": "function"
    }
  ],
  "bytecode": "0x60806040523480156200001157600080fd5b50604051620020b3380380620020b383398181016040528101906200003791906200013b565b826000806101000a81548173ffffffffffffffffffffffffffffffffffffffff021916908373ffffffffffffffffffffffffffffffffffffffff160217905550836001819055508160068190555080600b8190555050505050620001ad565b600080fd5b6000819050919050565b620000b0816200009b565b8114620000bc57600080fd5b50565b600081519050620000d081620000a5565b92915050565b600073ffffffffffffffffffffffffffffffffffffffff82169050919050565b60006200010382620000d6565b9050919050565b6200011581620000f6565b81146200012157600080fd5b50565b60008151905062000135816200010a565b92915050565b6000806000806080858703121562000158576200015762000096565b5b60006200016887828801620000bf565b94505060206200017b8782880162000124565b93505060406200018e87828801620000bf565b9250506060620001a187828801620000bf565b91505092959194509250565b611ef680620001bd6000396000f3fe6080604052600436106101355760003560e01c80637d728d07116100ab578063937e09b11161006f578063937e09b1146104375780639fb42b1f14610462578063b6da9f461461048d578063bee49e8e146104b8578063d7bb99ba146104f5578063d7d1bbdb146104ff57610135565b80637d728d071461033a57806381d12c581461037757806382fde093146103b85780638a9cfd55146103e35780638f2672801461040c57610135565b80633cb5d100116100fd5780633cb5d100146102365780634051ddac14610273578063481c6a75146102a257806352d472eb146102cd5780636c4f9108146102f85780637288e9611461032357610135565b8063034410061461013a5780630a1443911461016357806315032b21146101a057806321eff7fc146101bc57806331b6aee3146101f9575b600080fd5b34801561014657600080fd5b50610161600480360381019061015c91906113d6565b610528565b005b34801561016f57600080fd5b5061018a60048036038101906101859190611461565b610716565b60405161019791906114a9565b60405180910390f35b6101ba60048036038101906101b591906113d6565b610736565b005b3480156101c857600080fd5b506101e360048036038101906101de9190611461565b61081a565b6040516101f091906114d3565b60405180910390f35b34801561020557600080fd5b50610220600480360381019061021b91906114ee565b610876565b60405161022d91906114d3565b60405180910390f35b34801561024257600080fd5b5061025d600480360381019061025891906113d6565b61089b565b60405161026a919061154f565b60405180910390f35b34801561027f57600080fd5b506102886108da565b604051610299959493929190611579565b60405180910390f35b3480156102ae57600080fd5b506102b761091e565b6040516102c491906115cc565b60405180910390f35b3480156102d957600080fd5b506102e2610942565b6040516102ef91906114d3565b60405180910390f35b34801561030457600080fd5b5061030d610948565b60405161031a91906114d3565b60405180910390f35b34801561032f57600080fd5b5061033861094e565b005b34801561034657600080fd5b50610361600480360381019061035c9190611461565b610b1d565b60405161036e91906114d3565b60405180910390f35b34801561038357600080fd5b5061039e600480360381019061039991906113d6565b610b35565b6040516103af959493929190611680565b60405180910390f35b3480156103c457600080fd5b506103cd610c20565b6040516103da91906114d3565b60405180910390f35b3480156103ef57600080fd5b5061040a6004803603810190610405919061183b565b610c26565b005b34801561041857600080fd5b50610421610d73565b60405161042e91906114d3565b60405180910390f35b34801561044357600080fd5b5061044c610d79565b60405161045991906114d3565b60405180910390f35b34801561046e57600080fd5b50610477610d7f565b60405161048491906114d3565b60405180910390f35b34801561049957600080fd5b506104a2610d85565b6040516104af91906114d3565b60405180910390f35b3480156104c457600080fd5b506104df60048036038101906104da91906114ee565b610d8b565b6040516104ec91906114d3565b60405180910390f35b6104fd610e88565b005b34801561050b57600080fd5b50610526600480360381019061052191906113d6565b6110d5565b005b60008054906101000a900473ffffffffffffffffffffffffffffffffffffffff1673ffffffffffffffffffffffffffffffffffffffff163373ffffffffffffffffffffffffffffffffffffffff16146105b6576040517f08c379a00000000000000000000000000000000000000000000000000000000081526004016105ad9061191c565b60405180910390fd5b600060056000838152602001908152602001600020905060026003546105dc919061199a565b816003015411610621576040517f08c379a000000000000000000000000000000000000000000000000000000000815260040161061890611a3d565b60405180910390fd5b8060020160149054906101000a900460ff1615610673576040517f08c379a000000000000000000000000000000000000000000000000000000000815260040161066a90611acf565b60405180910390fd5b8060020160009054906101000a900473ffffffffffffffffffffffffffffffffffffffff1673ffffffffffffffffffffffffffffffffffffffff166108fc670de0b6b3a764000083600101546106c99190611aef565b9081150290604051600060405180830381858888f193505050501580156106f4573d6000803e3d6000fd5b5060018160020160146101000a81548160ff0219169083151502179055505050565b60026020528060005260406000206000915054906101000a900460ff1681565b600260003373ffffffffffffffffffffffffffffffffffffffff1673ffffffffffffffffffffffffffffffffffffffff16815260200190815260200160002060009054906101000a900460ff166107c2576040517f08c379a00000000000000000000000000000000000000000000000000000000081526004016107b990611bbb565b60405180910390fd5b34600d60003373ffffffffffffffffffffffffffffffffffffffff1673ffffffffffffffffffffffffffffffffffffffff16815260200190815260200160002060008381526020019081526020016000208190555050565b6000670de0b6b3a7640000600860008473ffffffffffffffffffffffffffffffffffffffff1673ffffffffffffffffffffffffffffffffffffffff1681526020019081526020016000205461086f919061199a565b9050919050565b600d602052816000526040600020602052806000526040600020600091509150505481565b600781815481106108ab57600080fd5b906000526020600020016000915054906101000a900473ffffffffffffffffffffffffffffffffffffffff1681565b60008060008060006001544760045460035460008054906101000a900473ffffffffffffffffffffffffffffffffffffffff16945094509450945094509091929394565b60008054906101000a900473ffffffffffffffffffffffffffffffffffffffff1681565b60065481565b600a5481565b60008054906101000a900473ffffffffffffffffffffffffffffffffffffffff1673ffffffffffffffffffffffffffffffffffffffff163373ffffffffffffffffffffffffffffffffffffffff16146109dc576040517f08c379a00000000000000000000000000000000000000000000000000000000081526004016109d39061191c565b60405180910390fd5b60005b600780549050811015610b1a5760078181548110610a00576109ff611bdb565b5b9060005260206000200160009054906101000a900473ffffffffffffffffffffffffffffffffffffffff1673ffffffffffffffffffffffffffffffffffffffff166108fc60646006546008600060078781548110610a6157610a60611bdb565b5b9060005260206000200160009054906101000a900473ffffffffffffffffffffffffffffffffffffffff1673ffffffffffffffffffffffffffffffffffffffff1673ffffffffffffffffffffffffffffffffffffffff16815260200190815260200160002054610ad19190611aef565b610adb919061199a565b9081150290604051600060405180830381858888f19350505050158015610b06573d6000803e3d6000fd5b508080610b1290611c0a565b9150506109df565b50565b600c6020528060005260406000206000915090505481565b6005602052806000526040600020600091509050806000018054610b5890611c82565b80601f0160208091040260200160405190810160405280929190818152602001828054610b8490611c82565b8015610bd15780601f10610ba657610100808354040283529160200191610bd1565b820191906000526020600020905b815481529060010190602001808311610bb457829003601f168201915b5050505050908060010154908060020160009054906101000a900473ffffffffffffffffffffffffffffffffffffffff16908060020160149054906101000a900460ff16908060030154905085565b60035481565b60008054906101000a900473ffffffffffffffffffffffffffffffffffffffff1673ffffffffffffffffffffffffffffffffffffffff163373ffffffffffffffffffffffffffffffffffffffff1614610cb4576040517f08c379a0000000000000000000000000000000000000000000000000000000008152600401610cab9061191c565b60405180910390fd5b60006005600060046000815480929190610ccd90611c0a565b919050558152602001908152602001600020905083816000019080519060200190610cf99291906112e9565b50828160010181905550818160020160006101000a81548173ffffffffffffffffffffffffffffffffffffffff021916908373ffffffffffffffffffffffffffffffffffffffff16021790555060008160020160146101000a81548160ff0219169083151502179055506000816003018190555050505050565b600b5481565b60015481565b60045481565b60095481565b60008060009054906101000a900473ffffffffffffffffffffffffffffffffffffffff1673ffffffffffffffffffffffffffffffffffffffff163373ffffffffffffffffffffffffffffffffffffffff1614610e1c576040517f08c379a0000000000000000000000000000000000000000000000000000000008152600401610e139061191c565b60405180910390fd5b670de0b6b3a7640000600d60008573ffffffffffffffffffffffffffffffffffffffff1673ffffffffffffffffffffffffffffffffffffffff168152602001908152602001600020600084815260200190815260200160002054610e80919061199a565b905092915050565b600154670de0b6b3a764000034610e9f919061199a565b1015610ee0576040517f08c379a0000000000000000000000000000000000000000000000000000000008152600401610ed790611d26565b60405180910390fd5b6001600260003373ffffffffffffffffffffffffffffffffffffffff1673ffffffffffffffffffffffffffffffffffffffff16815260200190815260200160002060006101000a81548160ff02191690831515021790555060036000815480929190610f4b90611c0a565b91905055506007339080600181540180825580915050600190039060005260206000200160009091909190916101000a81548173ffffffffffffffffffffffffffffffffffffffff021916908373ffffffffffffffffffffffffffffffffffffffff16021790555034600860003373ffffffffffffffffffffffffffffffffffffffff1673ffffffffffffffffffffffffffffffffffffffff16815260200190815260200160002081905550600b54670de0b6b3a76400003461100e919061199a565b1061107557600a600081548092919061102690611c0a565b91905055506002600c60003373ffffffffffffffffffffffffffffffffffffffff1673ffffffffffffffffffffffffffffffffffffffff168152602001908152602001600020819055506110d3565b6009600081548092919061108890611c0a565b91905055506001600c60003373ffffffffffffffffffffffffffffffffffffffff1673ffffffffffffffffffffffffffffffffffffffff168152602001908152602001600020819055505b565b6000600560008381526020019081526020016000209050600260003373ffffffffffffffffffffffffffffffffffffffff1673ffffffffffffffffffffffffffffffffffffffff16815260200190815260200160002060009054906101000a900460ff16611178576040517f08c379a000000000000000000000000000000000000000000000000000000000815260040161116f90611db8565b60405180910390fd5b8060040160003373ffffffffffffffffffffffffffffffffffffffff1673ffffffffffffffffffffffffffffffffffffffff16815260200190815260200160002060009054906101000a900460ff1615611207576040517f08c379a00000000000000000000000000000000000000000000000000000000081526004016111fe90611e4a565b60405180910390fd5b60018160040160003373ffffffffffffffffffffffffffffffffffffffff1673ffffffffffffffffffffffffffffffffffffffff16815260200190815260200160002060006101000a81548160ff0219169083151502179055506001600c60003373ffffffffffffffffffffffffffffffffffffffff1673ffffffffffffffffffffffffffffffffffffffff1681526020019081526020016000205414156112c8578060030160008154809291906112be90611c0a565b91905055506112e5565b60028160030160008282546112dd9190611e6a565b925050819055505b5050565b8280546112f590611c82565b90600052602060002090601f016020900481019282611317576000855561135e565b82601f1061133057805160ff191683800117855561135e565b8280016001018555821561135e579182015b8281111561135d578251825591602001919060010190611342565b5b50905061136b919061136f565b5090565b5b80821115611388576000816000905550600101611370565b5090565b6000604051905090565b600080fd5b600080fd5b6000819050919050565b6113b3816113a0565b81146113be57600080fd5b50565b6000813590506113d0816113aa565b92915050565b6000602082840312156113ec576113eb611396565b5b60006113fa848285016113c1565b91505092915050565b600073ffffffffffffffffffffffffffffffffffffffff82169050919050565b600061142e82611403565b9050919050565b61143e81611423565b811461144957600080fd5b50565b60008135905061145b81611435565b92915050565b60006020828403121561147757611476611396565b5b60006114858482850161144c565b91505092915050565b60008115159050919050565b6114a38161148e565b82525050565b60006020820190506114be600083018461149a565b92915050565b6114cd816113a0565b82525050565b60006020820190506114e860008301846114c4565b92915050565b6000806040838503121561150557611504611396565b5b60006115138582860161144c565b9250506020611524858286016113c1565b9150509250929050565b600061153982611403565b9050919050565b6115498161152e565b82525050565b60006020820190506115646000830184611540565b92915050565b61157381611423565b82525050565b600060a08201905061158e60008301886114c4565b61159b60208301876114c4565b6115a860408301866114c4565b6115b560608301856114c4565b6115c2608083018461156a565b9695505050505050565b60006020820190506115e1600083018461156a565b92915050565b600081519050919050565b600082825260208201905092915050565b60005b83811015611621578082015181840152602081019050611606565b83811115611630576000848401525b50505050565b6000601f19601f8301169050919050565b6000611652826115e7565b61165c81856115f2565b935061166c818560208601611603565b61167581611636565b840191505092915050565b600060a082019050818103600083015261169a8188611647565b90506116a960208301876114c4565b6116b66040830186611540565b6116c3606083018561149a565b6116d060808301846114c4565b9695505050505050565b600080fd5b600080fd5b7f4e487b7100000000000000000000000000000000000000000000000000000000600052604160045260246000fd5b61171c82611636565b810181811067ffffffffffffffff8211171561173b5761173a6116e4565b5b80604052505050565b600061174e61138c565b905061175a8282611713565b919050565b600067ffffffffffffffff82111561177a576117796116e4565b5b61178382611636565b9050602081019050919050565b82818337600083830152505050565b60006117b26117ad8461175f565b611744565b9050828152602081018484840111156117ce576117cd6116df565b5b6117d9848285611790565b509392505050565b600082601f8301126117f6576117f56116da565b5b813561180684826020860161179f565b91505092915050565b6118188161152e565b811461182357600080fd5b50565b6000813590506118358161180f565b92915050565b60008060006060848603121561185457611853611396565b5b600084013567ffffffffffffffff8111156118725761187161139b565b5b61187e868287016117e1565b935050602061188f868287016113c1565b92505060406118a086828701611826565b9150509250925092565b7f4f6e6c79207468652063616d706169676e206d616e616765722063616e20636160008201527f6c6c20746869732066756e6374696f6e2e000000000000000000000000000000602082015250565b60006119066031836115f2565b9150611911826118aa565b604082019050919050565b60006020820190508181036000830152611935816118f9565b9050919050565b7f4e487b7100000000000000000000000000000000000000000000000000000000600052601260045260246000fd5b7f4e487b7100000000000000000000000000000000000000000000000000000000600052601160045260246000fd5b60006119a5826113a0565b91506119b0836113a0565b9250826119c0576119bf61193c565b5b828204905092915050565b7f546869732072657175657374206e65656473206d6f726520617070726f76616c60008201527f73206265666f72652069742063616e2062652066696e616c697a656400000000602082015250565b6000611a27603c836115f2565b9150611a32826119cb565b604082019050919050565b60006020820190508181036000830152611a5681611a1a565b9050919050565b7f5468697320726571756573742068617320616c7265616479206265656e20666960008201527f6e616c697a656400000000000000000000000000000000000000000000000000602082015250565b6000611ab96027836115f2565b9150611ac482611a5d565b604082019050919050565b60006020820190508181036000830152611ae881611aac565b9050919050565b6000611afa826113a0565b9150611b05836113a0565b9250817fffffffffffffffffffffffffffffffffffffffffffffffffffffffffffffffff0483118215151615611b3e57611b3d61196b565b5b828202905092915050565b7f646f6e6f722073686f756c64206861766520616c726561647920636f6e74726960008201527f627574656420746f20746869732063616d706169676e00000000000000000000602082015250565b6000611ba56036836115f2565b9150611bb082611b49565b604082019050919050565b60006020820190508181036000830152611bd481611b98565b9050919050565b7f4e487b7100000000000000000000000000000000000000000000000000000000600052603260045260246000fd5b6000611c15826113a0565b91507fffffffffffffffffffffffffffffffffffffffffffffffffffffffffffffffff821415611c4857611c4761196b565b5b600182019050919050565b7f4e487b7100000000000000000000000000000000000000000000000000000000600052602260045260246000fd5b60006002820490506001821680611c9a57607f821691505b60208210811415611cae57611cad611c53565b5b50919050565b7f41206d696e756d756d20636f6e747269627574696f6e2069732072657175697260008201527f65642e0000000000000000000000000000000000000000000000000000000000602082015250565b6000611d106023836115f2565b9150611d1b82611cb4565b604082019050919050565b60006020820190508181036000830152611d3f81611d03565b9050919050565b7f4f6e6c7920636f6e7472696275746f72732063616e20617070726f766520612060008201527f7370656369666963207265717565737400000000000000000000000000000000602082015250565b6000611da26030836115f2565b9150611dad82611d46565b604082019050919050565b60006020820190508181036000830152611dd181611d95565b9050919050565b7f596f75206861766520616c726561647920766f74656420746f20617070726f7660008201527f6520746869732072657175657374000000000000000000000000000000000000602082015250565b6000611e34602e836115f2565b9150611e3f82611dd8565b604082019050919050565b60006020820190508181036000830152611e6381611e27565b9050919050565b6000611e75826113a0565b9150611e80836113a0565b9250827fffffffffffffffffffffffffffffffffffffffffffffffffffffffffffffffff03821115611eb557611eb461196b565b5b82820190509291505056fea26469706673582212209cfa7aceb792545788ac20bdc81e32acfe95233cbbc53bc105f7bda6cfd397cc64736f6c63430008090033",
  "linkReferences": {},
  "deployedLinkReferences": {}
}